{"abi":[{"type":"constructor","inputs":[{"name":"tokenBridge_","type":"address","internalType":"address"},{"name":"wethAddress","type":"address","internalType":"address"},{"name":"feeRecipient_","type":"address","internalType":"address"},{"name":"ownerAssistant_","type":"address","internalType":"address"},{"name":"unwrapWeth_","type":"bool","internalType":"bool"}],"stateMutability":"nonpayable"},{"type":"receive","stateMutability":"payable"},{"type":"function","name":"VERSION","inputs":[],"outputs":[{"name":"","type":"string","internalType":"string"}],"stateMutability":"view"},{"type":"function","name":"WETH","inputs":[],"outputs":[{"name":"","type":"address","internalType":"contract IWETH"}],"stateMutability":"view"},{"type":"function","name":"calculateMaxSwapAmountIn","inputs":[{"name":"token","type":"address","internalType":"address"}],"outputs":[{"name":"maxAllowed","type":"uint256","internalType":"uint256"}],"stateMutability":"view"},{"type":"function","name":"calculateNativeSwapAmountOut","inputs":[{"name":"token","type":"address","internalType":"address"},{"name":"toNativeAmount","type":"uint256","internalType":"uint256"}],"outputs":[{"name":"nativeAmount","type":"uint256","internalType":"uint256"}],"stateMutability":"view"},{"type":"function","name":"calculateRelayerFee","inputs":[{"name":"targetChainId","type":"uint16","internalType":"uint16"},{"name":"token","type":"address","internalType":"address"},{"name":"decimals","type":"uint8","internalType":"uint8"}],"outputs":[{"name":"feeInTokenDenomination","type":"uint256","internalType":"uint256"}],"stateMutability":"view"},{"type":"function","name":"cancelOwnershipTransferRequest","inputs":[{"name":"chainId_","type":"uint16","internalType":"uint16"}],"outputs":[],"stateMutability":"nonpayable"},{"type":"function","name":"chainId","inputs":[],"outputs":[{"name":"","type":"uint16","internalType":"uint16"}],"stateMutability":"view"},{"type":"function","name":"completeTransferWithRelay","inputs":[{"name":"encodedTransferMessage","type":"bytes","internalType":"bytes"}],"outputs":[],"stateMutability":"payable"},{"type":"function","name":"confirmOwnershipTransferRequest","inputs":[],"outputs":[],"stateMutability":"nonpayable"},{"type":"function","name":"decodeTransferWithRelay","inputs":[{"name":"encoded","type":"bytes","internalType":"bytes"}],"outputs":[{"name":"transfer","type":"tuple","internalType":"struct TokenBridgeRelayerStructs.TransferWithRelay","components":[{"name":"payloadId","type":"uint8","internalType":"uint8"},{"name":"targetRelayerFee","type":"uint256","internalType":"uint256"},{"name":"toNativeTokenAmount","type":"uint256","internalType":"uint256"},{"name":"targetRecipient","type":"bytes32","internalType":"bytes32"}]}],"stateMutability":"pure"},{"type":"function","name":"denormalizeAmount","inputs":[{"name":"amount","type":"uint256","internalType":"uint256"},{"name":"decimals","type":"uint8","internalType":"uint8"}],"outputs":[{"name":"","type":"uint256","internalType":"uint256"}],"stateMutability":"pure"},{"type":"function","name":"deregisterToken","inputs":[{"name":"chainId_","type":"uint16","internalType":"uint16"},{"name":"token","type":"address","internalType":"address"}],"outputs":[],"stateMutability":"nonpayable"},{"type":"function","name":"encodeTransferWithRelay","inputs":[{"name":"transfer","type":"tuple","internalType":"struct TokenBridgeRelayerStructs.TransferWithRelay","components":[{"name":"payloadId","type":"uint8","internalType":"uint8"},{"name":"targetRelayerFee","type":"uint256","internalType":"uint256"},{"name":"toNativeTokenAmount","type":"uint256","internalType":"uint256"},{"name":"targetRecipient","type":"bytes32","internalType":"bytes32"}]}],"outputs":[{"name":"encoded","type":"bytes","internalType":"bytes"}],"stateMutability":"pure"},{"type":"function","name":"feeRecipient","inputs":[],"outputs":[{"name":"","type":"address","internalType":"address"}],"stateMutability":"view"},{"type":"function","name":"fetchLocalAddressFromTransferMessage","inputs":[{"name":"payload","type":"bytes","internalType":"bytes"}],"outputs":[{"name":"localAddress","type":"address","internalType":"address"}],"stateMutability":"view"},{"type":"function","name":"getAcceptedTokensList","inputs":[],"outputs":[{"name":"","type":"address[]","internalType":"address[]"}],"stateMutability":"view"},{"type":"function","name":"getPaused","inputs":[],"outputs":[{"name":"","type":"bool","internalType":"bool"}],"stateMutability":"view"},{"type":"function","name":"getRegisteredContract","inputs":[{"name":"emitterChainId","type":"uint16","internalType":"uint16"}],"outputs":[{"name":"","type":"bytes32","internalType":"bytes32"}],"stateMutability":"view"},{"type":"function","name":"isAcceptedToken","inputs":[{"name":"token","type":"address","internalType":"address"}],"outputs":[{"name":"","type":"bool","internalType":"bool"}],"stateMutability":"view"},{"type":"function","name":"maxNativeSwapAmount","inputs":[{"name":"token","type":"address","internalType":"address"}],"outputs":[{"name":"","type":"uint256","internalType":"uint256"}],"stateMutability":"view"},{"type":"function","name":"nativeSwapRate","inputs":[{"name":"token","type":"address","internalType":"address"}],"outputs":[{"name":"","type":"uint256","internalType":"uint256"}],"stateMutability":"view"},{"type":"function","name":"normalizeAmount","inputs":[{"name":"amount","type":"uint256","internalType":"uint256"},{"name":"decimals","type":"uint8","internalType":"uint8"}],"outputs":[{"name":"","type":"uint256","internalType":"uint256"}],"stateMutability":"pure"},{"type":"function","name":"owner","inputs":[],"outputs":[{"name":"","type":"address","internalType":"address"}],"stateMutability":"view"},{"type":"function","name":"ownerAssistant","inputs":[],"outputs":[{"name":"","type":"address","internalType":"address"}],"stateMutability":"view"},{"type":"function","name":"pendingOwner","inputs":[],"outputs":[{"name":"","type":"address","internalType":"address"}],"stateMutability":"view"},{"type":"function","name":"registerContract","inputs":[{"name":"chainId_","type":"uint16","internalType":"uint16"},{"name":"contractAddress","type":"bytes32","internalType":"bytes32"}],"outputs":[],"stateMutability":"nonpayable"},{"type":"function","name":"registerToken","inputs":[{"name":"chainId_","type":"uint16","internalType":"uint16"},{"name":"token","type":"address","internalType":"address"}],"outputs":[],"stateMutability":"nonpayable"},{"type":"function","name":"relayerFee","inputs":[{"name":"chainId_","type":"uint16","internalType":"uint16"}],"outputs":[{"name":"","type":"uint256","internalType":"uint256"}],"stateMutability":"view"},{"type":"function","name":"relayerFeePrecision","inputs":[],"outputs":[{"name":"","type":"uint256","internalType":"uint256"}],"stateMutability":"view"},{"type":"function","name":"setPauseForTransfers","inputs":[{"name":"chainId_","type":"uint16","internalType":"uint16"},{"name":"paused","type":"bool","internalType":"bool"}],"outputs":[],"stateMutability":"nonpayable"},{"type":"function","name":"submitOwnershipTransferRequest","inputs":[{"name":"chainId_","type":"uint16","internalType":"uint16"},{"name":"newOwner","type":"address","internalType":"address"}],"outputs":[],"stateMutability":"nonpayable"},{"type":"function","name":"swapRate","inputs":[{"name":"token","type":"address","internalType":"address"}],"outputs":[{"name":"","type":"uint256","internalType":"uint256"}],"stateMutability":"view"},{"type":"function","name":"swapRatePrecision","inputs":[],"outputs":[{"name":"","type":"uint256","internalType":"uint256"}],"stateMutability":"view"},{"type":"function","name":"tokenBridge","inputs":[],"outputs":[{"name":"","type":"address","internalType":"contract ITokenBridge"}],"stateMutability":"view"},{"type":"function","name":"transferTokensWithRelay","inputs":[{"name":"token","type":"address","internalType":"address"},{"name":"amount","type":"uint256","internalType":"uint256"},{"name":"toNativeTokenAmount","type":"uint256","internalType":"uint256"},{"name":"targetChain","type":"uint16","internalType":"uint16"},{"name":"targetRecipient","type":"bytes32","internalType":"bytes32"},{"name":"batchId","type":"uint32","internalType":"uint32"}],"outputs":[{"name":"messageSequence","type":"uint64","internalType":"uint64"}],"stateMutability":"payable"},{"type":"function","name":"unwrapWeth","inputs":[],"outputs":[{"name":"","type":"bool","internalType":"bool"}],"stateMutability":"view"},{"type":"function","name":"updateFeeRecipient","inputs":[{"name":"chainId_","type":"uint16","internalType":"uint16"},{"name":"newFeeRecipient","type":"address","internalType":"address"}],"outputs":[],"stateMutability":"nonpayable"},{"type":"function","name":"updateMaxNativeSwapAmount","inputs":[{"name":"chainId_","type":"uint16","internalType":"uint16"},{"name":"token","type":"address","internalType":"address"},{"name":"maxAmount","type":"uint256","internalType":"uint256"}],"outputs":[],"stateMutability":"nonpayable"},{"type":"function","name":"updateOwnerAssistant","inputs":[{"name":"chainId_","type":"uint16","internalType":"uint16"},{"name":"newAssistant","type":"address","internalType":"address"}],"outputs":[],"stateMutability":"nonpayable"},{"type":"function","name":"updateRelayerFee","inputs":[{"name":"chainId_","type":"uint16","internalType":"uint16"},{"name":"amount","type":"uint256","internalType":"uint256"}],"outputs":[],"stateMutability":"nonpayable"},{"type":"function","name":"updateRelayerFeePrecision","inputs":[{"name":"chainId_","type":"uint16","internalType":"uint16"},{"name":"relayerFeePrecision_","type":"uint256","internalType":"uint256"}],"outputs":[],"stateMutability":"nonpayable"},{"type":"function","name":"updateSwapRate","inputs":[{"name":"chainId_","type":"uint16","internalType":"uint16"},{"name":"swapRateUpdate","type":"tuple[]","internalType":"struct TokenBridgeRelayerStructs.SwapRateUpdate[]","components":[{"name":"token","type":"address","internalType":"address"},{"name":"value","type":"uint256","internalType":"uint256"}]}],"outputs":[],"stateMutability":"nonpayable"},{"type":"function","name":"updateSwapRatePrecision","inputs":[{"name":"chainId_","type":"uint16","internalType":"uint16"},{"name":"swapRatePrecision_","type":"uint256","internalType":"uint256"}],"outputs":[],"stateMutability":"nonpayable"},{"type":"function","name":"updateUnwrapWethFlag","inputs":[{"name":"chainId_","type":"uint16","internalType":"uint16"},{"name":"unwrapWeth_","type":"bool","internalType":"bool"}],"outputs":[],"stateMutability":"nonpayable"},{"type":"function","name":"wormhole","inputs":[],"outputs":[{"name":"","type":"address","internalType":"contract IWormhole"}],"stateMutability":"view"},{"type":"function","name":"wrapAndTransferEthWithRelay","inputs":[{"name":"toNativeTokenAmount","type":"uint256","internalType":"uint256"},{"name":"targetChain","type":"uint16","internalType":"uint16"},{"name":"targetRecipient","type":"bytes32","internalType":"bytes32"},{"name":"batchId","type":"uint32","internalType":"uint32"}],"outputs":[{"name":"messageSequence","type":"uint64","internalType":"uint64"}],"stateMutability":"payable"},{"type":"event","name":"FeeRecipientUpdated","inputs":[{"name":"oldRecipient","type":"address","indexed":true,"internalType":"address"},{"name":"newRecipient","type":"address","indexed":true,"internalType":"address"}],"anonymous":false},{"type":"event","name":"OwnershipTransfered","inputs":[{"name":"oldOwner","type":"address","indexed":true,"internalType":"address"},{"name":"newOwner","type":"address","indexed":true,"internalType":"address"}],"anonymous":false},{"type":"event","name":"SwapExecuted","inputs":[{"name":"recipient","type":"address","indexed":true,"internalType":"address"},{"name":"relayer","type":"address","indexed":true,"internalType":"address"},{"name":"token","type":"address","indexed":true,"internalType":"address"},{"name":"tokenAmount","type":"uint256","indexed":false,"internalType":"uint256"},{"name":"nativeAmount","type":"uint256","indexed":false,"internalType":"uint256"}],"anonymous":false},{"type":"event","name":"SwapRateUpdated","inputs":[{"name":"swapRates","type":"tuple[]","indexed":true,"internalType":"struct TokenBridgeRelayerStructs.SwapRateUpdate[]","components":[{"name":"token","type":"address","internalType":"address"},{"name":"value","type":"uint256","internalType":"uint256"}]}],"anonymous":false},{"type":"event","name":"TransferRedeemed","inputs":[{"name":"emitterChainId","type":"uint16","indexed":true,"internalType":"uint16"},{"name":"emitterAddress","type":"bytes32","indexed":true,"internalType":"bytes32"},{"name":"sequence","type":"uint64","indexed":true,"internalType":"uint64"}],"anonymous":false}],"bytecode":{"object":"0x60806040523480156200001157600080fd5b50604051620049823803806200498283398101604081905262000034916200038c565b6001600f556001600160a01b038516620000955760405162461bcd60e51b815260206004820152601c60248201527f696e76616c696420746f6b656e2062726964676520616464726573730000000060448201526064015b60405180910390fd5b6001600160a01b038416620000ed5760405162461bcd60e51b815260206004820152601460248201527f696e76616c69642077657468206164647265737300000000000000000000000060448201526064016200008c565b6001600160a01b038316620001455760405162461bcd60e51b815260206004820152601560248201527f696e76616c69642066656520726563697069656e74000000000000000000000060448201526064016200008c565b6001600160a01b0382166200019d5760405162461bcd60e51b815260206004820152601760248201527f696e76616c6964206f776e657220617373697374616e7400000000000000000060448201526064016200008c565b600180546001600160a01b03191633179055600380546001600160a01b0319166001600160a01b038516179055600680546001600160a01b0319166001600160a01b03871617905560008054600160201b600160c01b0319166401000000006001600160a01b03871602179055600280546001600160a01b0319166001600160a01b0384161790556000805462ff0000191662010000831515021790556000859050620002c0816001600160a01b0316639a8a05926040518163ffffffff1660e01b8152600401602060405180830381865afa15801562000282573d6000803e3d6000fd5b505050506040513d601f19601f82011682018060405250810190620002a8919062000410565b6000805461ffff191661ffff92909216919091179055565b6200034b816001600160a01b03166384acd1bb6040518163ffffffff1660e01b8152600401602060405180830381865afa15801562000303573d6000803e3d6000fd5b505050506040513d601f19601f820116820180604052508101906200032991906200043d565b600580546001600160a01b0319166001600160a01b0392909216919091179055565b620003596305f5e100600755565b620003676305f5e100600855565b5050505050506200045d565b6001600160a01b03811681146200038957600080fd5b50565b600080600080600060a08688031215620003a557600080fd5b8551620003b28162000373565b6020870151909550620003c58162000373565b6040870151909450620003d88162000373565b6060870151909350620003eb8162000373565b608087015190925080151581146200040257600080fd5b809150509295509295909350565b6000602082840312156200042357600080fd5b815161ffff811681146200043657600080fd5b9392505050565b6000602082840312156200045057600080fd5b8151620004368162000373565b614515806200046d6000396000f3fe6080604052600436106102815760003560e01c80636805b84b1161014f5780639fe089ad116100c1578063cd601c781161007a578063cd601c781461083b578063df160d761461085b578063e30c39781461087d578063ea1d2e4a1461089b578063ffa1ad74146108bb578063fff982a8146108ec57600080fd5b80639fe089ad1461076b578063a2f32c8f14610798578063ad5c4648146107b8578063b5419523146107dd578063c6328a46146107fd578063c9c22f9f1461081b57600080fd5b80638da5cb5b116101135780638da5cb5b146106ac5780638e151dd1146106ca57806390a1afaa146106ea57806394cc743d1461070a5780639a8a05921461072a5780639cf278cd1461074d57600080fd5b80636805b84b146105db57806368aa9ef4146105fa5780637c9dec7a146106185780638335572f1461066e57806384acd1bb1461068e57600080fd5b80632def3e16116101f3578063415828bf116101ac578063415828bf14610517578063469048401461052c57806351e2d7b51461054a5780635b9cf0e11461056a578063640d946b1461058a57806366775a6b146105aa57600080fd5b80632def3e16146104145780632efe4f42146104345780632f25e25f1461046a57806339ba66111461047d5780633b6e750f1461049d5780633d62cca0146104e657600080fd5b8063203c509511610245578063203c50951461033357806327105ab91461035357806328ded8e31461037357806329ac8361146103935780632ca8008c146103a65780632d77e8fe146103dc57600080fd5b8063016aa2051461028d578063038c0b66146102af5780631019d654146102c45780631a282195146102f45780631acdab4b1461031457600080fd5b3661028857005b600080fd5b34801561029957600080fd5b506102ad6102a83660046137da565b61090c565b005b3480156102bb57600080fd5b506102ad6109d6565b6102d76102d2366004613825565b610ac3565b6040516001600160401b0390911681526020015b60405180910390f35b34801561030057600080fd5b506102ad61030f36600461389a565b610c63565b34801561032057600080fd5b506007545b6040519081526020016102eb565b34801561033f57600080fd5b506102ad61034e3660046137da565b610cec565b34801561035f57600080fd5b5061032561036e3660046138d7565b610e36565b34801561037f57600080fd5b5061032561038e3660046138d7565b610e70565b6102d76103a13660046138fc565b610e9e565b3480156103b257600080fd5b506103256103c1366004613946565b6001600160a01b03166000908152600a602052604090205490565b3480156103e857600080fd5b506103fc6103f7366004613a3e565b61113c565b6040516001600160a01b0390911681526020016102eb565b34801561042057600080fd5b506102ad61042f366004613abd565b61125c565b34801561044057600080fd5b5061032561044f366004613946565b6001600160a01b03166000908152600b602052604090205490565b6102ad610478366004613ae9565b61131a565b34801561048957600080fd5b50610325610498366004613b5a565b611647565b3480156104a957600080fd5b506104d66104b8366004613946565b6001600160a01b03166000908152600d602052604090205460ff1690565b60405190151581526020016102eb565b3480156104f257600080fd5b50610325610501366004613ba5565b61ffff1660009081526009602052604090205490565b34801561052357600080fd5b50600854610325565b34801561053857600080fd5b506003546001600160a01b03166103fc565b34801561055657600080fd5b506102ad610565366004613abd565b6116fa565b34801561057657600080fd5b506102ad610585366004613abd565b611824565b34801561059657600080fd5b506102ad6105a5366004613bc2565b61193f565b3480156105b657600080fd5b506103256105c5366004613ba5565b61ffff166000908152600c602052604090205490565b3480156105e757600080fd5b506000546301000000900460ff166104d6565b34801561060657600080fd5b506002546001600160a01b03166103fc565b34801561062457600080fd5b50610638610633366004613a3e565b611b83565b6040516102eb9190815160ff16815260208083015190820152604080830151908201526060918201519181019190915260800190565b34801561067a57600080fd5b506102ad61068936600461389a565b611cb4565b34801561069a57600080fd5b506005546001600160a01b03166103fc565b3480156106b857600080fd5b506001546001600160a01b03166103fc565b3480156106d657600080fd5b506103256106e5366004613c49565b611d3b565b3480156106f657600080fd5b506102ad610705366004613abd565b611e1b565b34801561071657600080fd5b506102ad6107253660046137da565b611ed9565b34801561073657600080fd5b5060005460405161ffff90911681526020016102eb565b34801561075957600080fd5b5060005462010000900460ff166104d6565b34801561077757600080fd5b5061078b610786366004613c67565b611fa5565b6040516102eb9190613d25565b3480156107a457600080fd5b506102ad6107b3366004613ba5565b612050565b3480156107c457600080fd5b50600054600160201b90046001600160a01b03166103fc565b3480156107e957600080fd5b506103256107f8366004613946565b6120c7565b34801561080957600080fd5b506006546001600160a01b03166103fc565b34801561082757600080fd5b506102ad6108363660046137da565b612161565b34801561084757600080fd5b50610325610856366004613946565b61221d565b34801561086757600080fd5b50610870612302565b6040516102eb9190613d38565b34801561088957600080fd5b506004546001600160a01b03166103fc565b3480156108a757600080fd5b506102ad6108b63660046137da565b612367565b3480156108c757600080fd5b5061078b604051806040016040528060058152602001640302e322e360dc1b81525081565b3480156108f857600080fd5b506102ad610907366004613d85565b612456565b3361091f6001546001600160a01b031690565b6001600160a01b03161461094e5760405162461bcd60e51b815260040161094590613dc6565b60405180910390fd5b818061ffff1661096160005461ffff1690565b61ffff16146109825760405162461bcd60e51b815260040161094590613df4565b6001600160a01b0382166109c85760405162461bcd60e51b815260206004820152600d60248201526c34b73b30b634b2103a37b5b2b760991b6044820152606401610945565b6109d18261251d565b505050565b60006109ea6004546001600160a01b031690565b9050336001600160a01b03821614610a445760405162461bcd60e51b815260206004820152601b60248201527f63616c6c6572206d7573742062652070656e64696e674f776e657200000000006044820152606401610945565b6000610a586001546001600160a01b031690565b600180546001600160a01b0319166001600160a01b0385161790559050610a7f60006126c2565b816001600160a01b0316816001600160a01b03167f0d18b5fd22306e373229b9439188228edca81207d1667f604daf6cef8aa3ee6760405160405180910390a35050565b6000610acd6126e4565b6000546301000000900460ff1615610b1b5760405162461bcd60e51b81526020600482015260116024820152701c995b185e595c881a5cc81c185d5cd959607a1b6044820152606401610945565b6000610b2f6005546001600160a01b031690565b6001600160a01b0316631a90a2196040518163ffffffff1660e01b8152600401602060405180830381865afa158015610b6c573d6000803e3d6000fd5b505050506040513d601f19601f82011682018060405250810190610b909190613e19565b9050803414610bd65760405162461bcd60e51b8152602060048201526012602482015271696e73756666696369656e742076616c756560701b6044820152606401610945565b6000610be18961273d565b9050610bf6610bf08983610e36565b82610e70565b9750610c0289896127df565b9750610c4b6040518060c001604052808b6001600160a01b031681526020018360ff1681526020018a81526020018981526020018861ffff168152602001878152508584612815565b92505050610c596001600f55565b9695505050505050565b33610c766001546001600160a01b031690565b6001600160a01b031614610c9c5760405162461bcd60e51b815260040161094590613dc6565b818061ffff16610caf60005461ffff1690565b61ffff1614610cd05760405162461bcd60e51b815260040161094590613df4565b6000805463ff0000001916630100000084151502179055505050565b33610cff6001546001600160a01b031690565b6001600160a01b031614610d255760405162461bcd60e51b815260040161094590613dc6565b818061ffff16610d3860005461ffff1690565b61ffff1614610d595760405162461bcd60e51b815260040161094590613df4565b6001600160a01b038216610dbf5760405162461bcd60e51b815260206004820152602760248201527f6e6577466565526563697069656e742063616e6e6f7420657175616c206164646044820152667265737328302960c81b6064820152608401610945565b6000610dd36003546001600160a01b031690565b600380546001600160a01b0319166001600160a01b0386161790559050826001600160a01b0316816001600160a01b03167faaebcf1bfa00580e41d966056b48521fa9f202645c86d4ddf28113e617c1b1d360405160405180910390a350505050565b600060088260ff161115610e6757610e4f600883613e48565b610e5a90600a613f45565b610e649084613f54565b92505b50815b92915050565b600060088260ff161115610e6757610e89600883613e48565b610e9490600a613f45565b610e649084613f76565b600080546301000000900460ff1615610eed5760405162461bcd60e51b81526020600482015260116024820152701c995b185e595c881a5cc81c185d5cd959607a1b6044820152606401610945565b60005462010000900460ff16610f455760405162461bcd60e51b815260206004820181905260248201527f574554482066756e6374696f6e616c697479206e6f7420737570706f727465646044820152606401610945565b6000610f596005546001600160a01b031690565b6001600160a01b0316631a90a2196040518163ffffffff1660e01b8152600401602060405180830381865afa158015610f96573d6000803e3d6000fd5b505050506040513d601f19601f82011682018060405250810190610fba9190613e19565b90508034116110005760405162461bcd60e51b8152602060048201526012602482015271696e73756666696369656e742076616c756560701b6044820152606401610945565b600061100c8234613f8d565b9050600061102561101e836012610e36565b6012610e70565b61102f9083613f8d565b9050801561106657604051339082156108fc029083906000818181858888f19350505050158015611064573d6000803e3d6000fd5b505b60006110728284613f8d565b905060006110906000546001600160a01b03600160201b9091041690565b9050806001600160a01b031663d0e30db0836040518263ffffffff1660e01b81526004016000604051808303818588803b1580156110cd57600080fd5b505af11580156110e1573d6000803e3d6000fd5b505050505061112e6040518060c00160405280836001600160a01b03168152602001601260ff1681526020018481526020018c81526020018b61ffff1681526020018a8152508887612815565b9a9950505050505050505050565b60008061114a836021612b3d565b90506000611159846041612b9b565b905061116860005461ffff1690565b61ffff168161ffff1614611249576006546001600160a01b0316604051630ff8f14360e11b815261ffff83166004820152602481018490526001600160a01b039190911690631ff1e28690604401602060405180830381865afa1580156111d3573d6000803e3d6000fd5b505050506040513d601f19601f820116820180604052508101906111f79190613fa0565b92506001600160a01b0383166112445760405162461bcd60e51b81526020600482015260126024820152711d1bdad95b881b9bdd08185d1d195cdd195960721b6044820152606401610945565b611255565b61125282612bf8565b92505b5050919050565b3361126f6001546001600160a01b031690565b6001600160a01b0316146112955760405162461bcd60e51b815260040161094590613dc6565b818061ffff166112a860005461ffff1690565b61ffff16146112c95760405162461bcd60e51b815260040161094590613df4565b600082116113115760405162461bcd60e51b81526020600482015260156024820152740707265636973696f6e206d757374206265203e203605c1b6044820152606401610945565b6109d182600755565b600080600061135e85858080601f016020809104026020016040519081016040528093929190818152602001838380828437600092019190915250612c4c92505050565b925092509250600061136f84611b83565b905060006113808260600151612bf8565b9050600061139760005460ff620100009091041690565b90506001600160a01b03821633036113bf576113b584838784612f41565b5050505050505050565b60006113ca8561273d565b90506113da846020015182610e70565b6020850152600054600160201b90046001600160a01b03166001600160a01b0316856001600160a01b0316036114255761141a868486602001518561306b565b505050505050505050565b6040840151156115ed5761143d846040015182610e70565b6040850152600061144d8661221d565b9050808560400151111561146357604085018190525b6000611473878760400151611d3b565b905080156115af57803410156114cb5760405162461bcd60e51b815260206004820181905260248201527f696e73756666696369656e74206e617469766520617373657420616d6f756e746044820152606401610945565b60006114d78234613f8d565b9050801561150e57604051339082156108fc029083906000818181858888f1935050505015801561150c573d6000803e3d6000fd5b505b6040516001600160a01b0387169083156108fc029084906000818181858888f19350505050158015611544573d6000803e3d6000fd5b50876001600160a01b0316336001600160a01b0316876001600160a01b03167f764f0dc063c06f32d89a3f3af80c0db4be8a090901f589a478b447e0a51f09f18a60400151866040516115a1929190918252602082015260400190565b60405180910390a4506115ea565b6000604087015234156115ea5760405133903480156108fc02916000818181858888f193505050501580156115e8573d6000803e3d6000fd5b505b50505b6000846040015185602001516116039190613fbd565b9050801561162757611627866116216003546001600160a01b031690565b836131e1565b61163b8685611636848b613f8d565b6131e1565b50505050505050505050565b6001600160a01b0382166000908152600a6020526040812054806000036116a45760405162461bcd60e51b81526020600482015260116024820152701cddd85c081c985d19481b9bdd081cd95d607a1b6044820152606401610945565b6008546116b19082613f76565b60075461ffff87166000908152600c60205260409020546116d386600a613f45565b6116dd9190613f76565b6116e79190613f76565b6116f19190613f54565b95945050505050565b3361170d6001546001600160a01b031690565b6001600160a01b0316146117335760405162461bcd60e51b815260040161094590613dc6565b806117905760405162461bcd60e51b815260206004820152602760248201527f636f6e7472616374416464726573732063616e6e6f7420657175616c206279746044820152666573333228302960c81b6064820152608401610945565b61ffff8216158015906117ac575060005461ffff838116911614155b6118085760405162461bcd60e51b815260206004820152602760248201527f636861696e49645f2063616e6e6f7420657175616c2030206f7220746869732060448201526618da185a5b925960ca1b6064820152608401610945565b61ffff91909116600090815260096020526040902055565b5050565b336118376001546001600160a01b031690565b6001600160a01b0316148061186557503361185a6002546001600160a01b031690565b6001600160a01b0316145b6118815760405162461bcd60e51b815260040161094590613fd0565b60005461ffff1661ffff168261ffff16036118ce5760405162461bcd60e51b815260206004820152600d60248201526c34b73b30b634b21031b430b4b760991b6044820152606401610945565b61ffff82166000908152600960205260409020546119275760405162461bcd60e51b815260206004820152601660248201527518dbdb9d1c9858dd08191bd95cdb89dd08195e1a5cdd60521b6044820152606401610945565b61ffff919091166000908152600c6020526040902055565b336119526001546001600160a01b031690565b6001600160a01b031614806119805750336119756002546001600160a01b031690565b6001600160a01b0316145b61199c5760405162461bcd60e51b815260040161094590613fd0565b828061ffff166119af60005461ffff1690565b61ffff16146119d05760405162461bcd60e51b815260040161094590613df4565b8180611a135760405162461bcd60e51b8152602060048201526012602482015271696e76616c69642061727261792073697a6560701b6044820152606401610945565b60005b81811015611b3b57611a49858583818110611a3357611a33614011565b6104b89260206040909202019081019150613946565b611a655760405162461bcd60e51b815260040161094590614027565b6000858583818110611a7957611a79614011565b9050604002016020013511611ad05760405162461bcd60e51b815260206004820152601960248201527f737761702072617465206d757374206265206e6f6e7a65726f000000000000006044820152606401610945565b611b33858583818110611ae557611ae5614011565b611afb9260206040909202019081019150613946565b868684818110611b0d57611b0d614011565b905060400201602001356001600160a01b039091166000908152600a6020526040902055565b600101611a16565b508383604051611b4c929190614053565b604051908190038120907f7abf49a6ebb116bc314846377cd82a3d2c8c1ea48149a652356009fc37100dd790600090a25050505050565b604080516080810182526000808252602082018190529181018290526060810182905290611bb18382613244565b60ff168252611bc1600182613fbd565b9050816000015160ff16600114611c0e5760405162461bcd60e51b81526020600482015260116024820152701a5b9d985b1a59081c185e5b1bd8591259607a1b6044820152606401610945565b611c1883826132a0565b602080840191909152611c2b9082613fbd565b9050611c3783826132a0565b6040830152611c47602082613fbd565b9050611c538382612b3d565b6060830152611c63602082613fbd565b905082518114611cae5760405162461bcd60e51b81526020600482015260166024820152750d2dcecc2d8d2c840dacae6e6c2ceca40d8cadccee8d60531b6044820152606401610945565b50919050565b33611cc76001546001600160a01b031690565b6001600160a01b031614611ced5760405162461bcd60e51b815260040161094590613dc6565b818061ffff16611d0060005461ffff1690565b61ffff1614611d215760405162461bcd60e51b815260040161094590613df4565b6000805462ff000019166201000084151502179055505050565b600080611d478461273d565b90506000611d6d611d686000546001600160a01b03600160201b9091041690565b61273d565b90508060ff168260ff161115611dca57611d878183613e48565b611d9290600a613f45565b611d9b866120c7565b611da59190613f76565b84611daf60075490565b611db99190613f76565b611dc39190613f54565b9250611e13565b611dd3856120c7565b611ddd8383613e48565b611de890600a613f45565b85611df260075490565b611dfc9190613f76565b611e069190613f76565b611e109190613f54565b92505b505092915050565b33611e2e6001546001600160a01b031690565b6001600160a01b031614611e545760405162461bcd60e51b815260040161094590613dc6565b818061ffff16611e6760005461ffff1690565b61ffff1614611e885760405162461bcd60e51b815260040161094590613df4565b60008211611ed05760405162461bcd60e51b81526020600482015260156024820152740707265636973696f6e206d757374206265203e203605c1b6044820152606401610945565b6109d182600855565b33611eec6001546001600160a01b031690565b6001600160a01b031614611f125760405162461bcd60e51b815260040161094590613dc6565b818061ffff16611f2560005461ffff1690565b61ffff1614611f465760405162461bcd60e51b815260040161094590613df4565b6001600160a01b038216611f9c5760405162461bcd60e51b815260206004820181905260248201527f6e65774f776e65722063616e6e6f7420657175616c20616464726573732830296044820152606401610945565b6109d1826126c2565b6060816000015160ff16600114611ff25760405162461bcd60e51b81526020600482015260116024820152701a5b9d985b1a59081c185e5b1bd8591259607a1b6044820152606401610945565b81516020808401516040808601516060870151915161203a95949192910160f89490941b6001600160f81b031916845260018401929092526021830152604182015260610190565b6040516020818303038152906040529050919050565b336120636001546001600160a01b031690565b6001600160a01b0316146120895760405162461bcd60e51b815260040161094590613dc6565b808061ffff1661209c60005461ffff1690565b61ffff16146120bd5760405162461bcd60e51b815260040161094590613df4565b61182060006126c2565b600080546001600160a01b03600160201b90910481168252600a60205260408083205491841683528220546000821180156121025750600081115b6121425760405162461bcd60e51b81526020600482015260116024820152701cddd85c081c985d19481b9bdd081cd95d607a1b6044820152606401610945565b808261214d60075490565b6121579190613f76565b6112529190613f54565b336121746001546001600160a01b031690565b6001600160a01b03161461219a5760405162461bcd60e51b815260040161094590613dc6565b818061ffff166121ad60005461ffff1690565b61ffff16146121ce5760405162461bcd60e51b815260040161094590613df4565b6001600160a01b0382166122145760405162461bcd60e51b815260206004820152600d60248201526c34b73b30b634b2103a37b5b2b760991b6044820152606401610945565b6109d1826132f5565b6000806122298361273d565b9050600061224a611d686000546001600160a01b03600160201b9091041690565b90508060ff168260ff1611156122b9576007546122678284613e48565b61227290600a613f45565b61227b866120c7565b6001600160a01b0387166000908152600b602052604090205461229e9190613f76565b6122a89190613f76565b6122b29190613f54565b9250611255565b6007546122c68383613e48565b6122d190600a613f45565b6122db9190613f76565b6122e4856120c7565b6001600160a01b0386166000908152600b602052604090205461214d565b60606000600e0180548060200260200160405190810160405280929190818152602001828054801561235d57602002820191906000526020600020905b81546001600160a01b0316815260019091019060200180831161233f575b5050505050905090565b3361237a6001546001600160a01b031690565b6001600160a01b0316146123a05760405162461bcd60e51b815260040161094590613dc6565b818061ffff166123b360005461ffff1690565b61ffff16146123d45760405162461bcd60e51b815260040161094590613df4565b6001600160a01b0382166124365760405162461bcd60e51b8152602060048201526024808201527f6e6577417373697374616e742063616e6e6f7420657175616c206164647265736044820152637328302960e01b6064820152608401610945565b600280546001600160a01b0319166001600160a01b038416179055505050565b336124696001546001600160a01b031690565b6001600160a01b03161461248f5760405162461bcd60e51b815260040161094590613dc6565b828061ffff166124a260005461ffff1690565b61ffff16146124c35760405162461bcd60e51b815260040161094590613df4565b6001600160a01b0383166000908152600d602052604090205460ff166124fb5760405162461bcd60e51b815260040161094590614027565b6001600160a01b0383166000908152600b602052604090208290555b50505050565b6001600160a01b0381166000908152600d602052604090205460ff1661257c5760405162461bcd60e51b81526020600482015260146024820152731d1bdad95b881b9bdd081c9959da5cdd195c995960621b6044820152606401610945565b6001600160a01b0381166000908152600d60209081526040808320805460ff19169055600a8252808320839055600b9091528120819055600e54905b8181101561260257826001600160a01b03166000600e0182815481106125e0576125e0614011565b6000918252602090912001546001600160a01b031614612602576001016125b8565b8181146109d157600182111561268a57600e61261f600184613f8d565b8154811061262f5761262f614011565b600091825260209091200154600e80546001600160a01b03909216918390811061265b5761265b614011565b9060005260206000200160006101000a8154816001600160a01b0302191690836001600160a01b031602179055505b600e80548061269b5761269b61409e565b600082815260209020810160001990810180546001600160a01b0319169055019055505050565b600480546001600160a01b0319166001600160a01b0392909216919091179055565b6002600f54036127365760405162461bcd60e51b815260206004820152601f60248201527f5265656e7472616e637947756172643a207265656e7472616e742063616c6c006044820152606401610945565b6002600f55565b60408051600481526024810182526020810180516001600160e01b031663313ce56760e01b179052905160009182916001600160a01b03851691612780916140b4565b600060405180830381855afa9150503d80600081146127bb576040519150601f19603f3d011682016040523d82523d6000602084013e6127c0565b606091505b50915050808060200190518101906127d891906140e0565b9392505050565b6000806127eb846133c4565b90506127f984333086613470565b80612803856133c4565b61280d9190613f8d565b949350505050565b82516001600160a01b03166000908152600d602052604081205460ff1661284e5760405162461bcd60e51b815260040161094590614027565b60a08401516128ab5760405162461bcd60e51b8152602060048201526024808201527f746172676574526563697069656e742063616e6e6f74206265206279746573336044820152633228302960e01b6064820152608401610945565b60006128bf85604001518660200151610e36565b9050600081116129115760405162461bcd60e51b815260206004820152601d60248201527f6e6f726d616c697a656420616d6f756e74206d757374206265203e20300000006044820152606401610945565b600061292586606001518760200151610e36565b905085606001516000148061293a5750600081115b6129865760405162461bcd60e51b815260206004820152601b60248201527f696e76616c696420746f4e6174697665546f6b656e416d6f756e7400000000006044820152606401610945565b608086015161ffff16600090815260096020526040902054806129e35760405162461bcd60e51b81526020600482015260156024820152741d185c99d95d081b9bdd081c9959da5cdd195c9959605a1b6044820152606401610945565b6000612a096129ff89608001518a600001518b60200151611647565b8960200151610e36565b9050612a158382613fbd565b8411612a595760405162461bcd60e51b81526020600482015260136024820152721a5b9cdd59999a58da595b9d08185b5bdd5b9d606a1b6044820152606401610945565b6000612a8c6040518060800160405280600160ff1681526020018481526020018681526020018b60a00151815250611fa5565b90506000612aa26006546001600160a01b031690565b9050612ab78a60000151828c604001516134a8565b806001600160a01b031663c5a5ebda898c600001518d604001518e60800151898f896040518863ffffffff1660e01b8152600401612afa969594939291906140fd565b60206040518083038185885af1158015612b18573d6000803e3d6000fd5b50505050506040513d601f19601f8201168201806040525081019061112e9190614163565b6000612b4a826020613fbd565b83511015612b925760405162461bcd60e51b8152602060048201526015602482015274746f427974657333325f6f75744f66426f756e647360581b6044820152606401610945565b50016020015190565b6000612ba8826002613fbd565b83511015612bef5760405162461bcd60e51b8152602060048201526014602482015273746f55696e7431365f6f75744f66426f756e647360601b6044820152606401610945565b50016002015190565b60006001600160a01b0319821615612c485760405162461bcd60e51b8152602060048201526013602482015272696e76616c69642045564d206164647265737360681b6044820152606401610945565b5090565b60606000806000612c656005546001600160a01b031690565b6001600160a01b031663a9e11893866040518263ffffffff1660e01b8152600401612c909190613d25565b600060405180830381865afa158015612cad573d6000803e3d6000fd5b505050506040513d6000823e601f3d908101601f19168201604052612cd591908101906142a2565b90506000612ce68260e0015161113c565b9050612d0a816001600160a01b03166000908152600d602052604090205460ff1690565b612d4d5760405162461bcd60e51b81526020600482015260146024820152731d1bdad95b881b9bdd081c9959da5cdd195c995960621b6044820152606401610945565b6000612d58826133c4565b90506000612d6e6006546001600160a01b031690565b90506000816001600160a01b031663c3f511c18a6040518263ffffffff1660e01b8152600401612d9e9190613d25565b6000604051808303816000875af1158015612dbd573d6000803e3d6000fd5b505050506040513d6000823e601f3d908101601f19168201604052612de591908101906143c6565b9050600083612df3866133c4565b612dfd9190613f8d565b90506000836001600160a01b031663ea63738d846040518263ffffffff1660e01b8152600401612e2d9190613d25565b600060405180830381865afa158015612e4a573d6000803e3d6000fd5b505050506040513d6000823e601f3d908101601f19168201604052612e7291908101906143fa565b9050612e92876060015161ffff1660009081526009602052604090205490565b8160c0015114612ee45760405162461bcd60e51b815260206004820152601760248201527f636f6e7472616374206e6f7420726567697374657265640000000000000000006044820152606401610945565b8660a001516001600160401b03168760800151886060015161ffff167fcaf280c8cfeba144da67230d9b009c8f868a75bac9a528fa0474be1ba317c16960405160405180910390a460e001519a9099509397509295505050505050565b3415612f9b5760405162461bcd60e51b815260206004820152602360248201527f726563697069656e742063616e6e6f742073776170206e61746976652061737360448201526265747360e81b6064820152608401610945565b6000546001600160a01b03600160201b909104811690851681148015612fbe5750815b1561305957604051632e1a7d4d60e01b8152600481018490526001600160a01b03821690632e1a7d4d90602401600060405180830381600087803b15801561300557600080fd5b505af1158015613019573d6000803e3d6000fd5b50506040516001600160a01b038716925085156108fc02915085906000818181858888f19350505050158015613053573d6000803e3d6000fd5b50613064565b6130648585856131e1565b5050505050565b34156130ae5760405162461bcd60e51b815260206004820152601260248201527176616c7565206d757374206265207a65726f60701b6044820152606401610945565b80156131a157600054604051632e1a7d4d60e01b815260048101869052600160201b9091046001600160a01b031690632e1a7d4d90602401600060405180830381600087803b15801561310057600080fd5b505af1158015613114573d6000803e3d6000fd5b50505050826001600160a01b03166108fc83866131319190613f8d565b6040518115909202916000818181858888f19350505050158015613159573d6000803e3d6000fd5b50811561319c576003546040516001600160a01b039091169083156108fc029084906000818181858888f1935050505015801561319a573d6000803e3d6000fd5b505b612517565b600054600160201b90046001600160a01b03166131c381856116368689613f8d565b821561306457613064816131df6003546001600160a01b031690565b855b6040516001600160a01b0383166024820152604481018290526109d190849063a9059cbb60e01b906064015b60408051601f198184030181529190526020810180516001600160e01b03166001600160e01b0319909316929092179091526135bd565b6000613251826001613fbd565b835110156132975760405162461bcd60e51b8152602060048201526013602482015272746f55696e74385f6f75744f66426f756e647360681b6044820152606401610945565b50016001015190565b60006132ad826020613fbd565b83511015612b925760405162461bcd60e51b8152602060048201526015602482015274746f55696e743235365f6f75744f66426f756e647360581b6044820152606401610945565b6001600160a01b0381166000908152600d602052604090205460ff161561335e5760405162461bcd60e51b815260206004820152601860248201527f746f6b656e20616c7265616479207265676973746572656400000000000000006044820152606401610945565b6001600160a01b03166000818152600d60205260408120805460ff19166001908117909155600e805491820181559091527fbb7b4a454dc3493923482f07822329ed19e8244eff582cc204f8554c3620c3fd0180546001600160a01b0319169091179055565b604080513060248083019190915282518083039091018152604490910182526020810180516001600160e01b03166370a0823160e01b179052905160009182916001600160a01b03851691613418916140b4565b600060405180830381855afa9150503d8060008114613453576040519150601f19603f3d011682016040523d82523d6000602084013e613458565b606091505b50915050808060200190518101906127d89190613e19565b6040516001600160a01b03808516602483015283166044820152606481018290526125179085906323b872dd60e01b9060840161320d565b8015806135225750604051636eb1769f60e11b81523060048201526001600160a01b03838116602483015284169063dd62ed3e90604401602060405180830381865afa1580156134fc573d6000803e3d6000fd5b505050506040513d601f19601f820116820180604052508101906135209190613e19565b155b61358d5760405162461bcd60e51b815260206004820152603660248201527f5361666545524332303a20617070726f76652066726f6d206e6f6e2d7a65726f60448201527520746f206e6f6e2d7a65726f20616c6c6f77616e636560501b6064820152608401610945565b6040516001600160a01b0383166024820152604481018290526109d190849063095ea7b360e01b9060640161320d565b6000613612826040518060400160405280602081526020017f5361666545524332303a206c6f772d6c6576656c2063616c6c206661696c6564815250856001600160a01b031661368f9092919063ffffffff16565b8051909150156109d1578080602001905181019061363091906144c2565b6109d15760405162461bcd60e51b815260206004820152602a60248201527f5361666545524332303a204552433230206f7065726174696f6e20646964206e6044820152691bdd081cdd58d8d9595960b21b6064820152608401610945565b606061280d848460008585600080866001600160a01b031685876040516136b691906140b4565b60006040518083038185875af1925050503d80600081146136f3576040519150601f19603f3d011682016040523d82523d6000602084013e6136f8565b606091505b509150915061370987838387613714565b979650505050505050565b6060831561378357825160000361377c576001600160a01b0385163b61377c5760405162461bcd60e51b815260206004820152601d60248201527f416464726573733a2063616c6c20746f206e6f6e2d636f6e74726163740000006044820152606401610945565b508161280d565b61280d83838151156137985781518083602001fd5b8060405162461bcd60e51b81526004016109459190613d25565b61ffff811681146137c257600080fd5b50565b6001600160a01b03811681146137c257600080fd5b600080604083850312156137ed57600080fd5b82356137f8816137b2565b91506020830135613808816137c5565b809150509250929050565b63ffffffff811681146137c257600080fd5b60008060008060008060c0878903121561383e57600080fd5b8635613849816137c5565b955060208701359450604087013593506060870135613867816137b2565b92506080870135915060a087013561387e81613813565b809150509295509295509295565b80151581146137c257600080fd5b600080604083850312156138ad57600080fd5b82356138b8816137b2565b915060208301356138088161388c565b60ff811681146137c257600080fd5b600080604083850312156138ea57600080fd5b823591506020830135613808816138c8565b6000806000806080858703121561391257600080fd5b843593506020850135613924816137b2565b925060408501359150606085013561393b81613813565b939692955090935050565b60006020828403121561395857600080fd5b81356127d8816137c5565b634e487b7160e01b600052604160045260246000fd5b604051608081016001600160401b038111828210171561399b5761399b613963565b60405290565b60405161016081016001600160401b038111828210171561399b5761399b613963565b60405161010081016001600160401b038111828210171561399b5761399b613963565b604051601f8201601f191681016001600160401b0381118282101715613a0f57613a0f613963565b604052919050565b60006001600160401b03821115613a3057613a30613963565b50601f01601f191660200190565b600060208284031215613a5057600080fd5b81356001600160401b03811115613a6657600080fd5b8201601f81018413613a7757600080fd5b8035613a8a613a8582613a17565b6139e7565b818152856020838501011115613a9f57600080fd5b81602084016020830137600091810160200191909152949350505050565b60008060408385031215613ad057600080fd5b8235613adb816137b2565b946020939093013593505050565b60008060208385031215613afc57600080fd5b82356001600160401b0380821115613b1357600080fd5b818501915085601f830112613b2757600080fd5b813581811115613b3657600080fd5b866020828501011115613b4857600080fd5b60209290920196919550909350505050565b600080600060608486031215613b6f57600080fd5b8335613b7a816137b2565b92506020840135613b8a816137c5565b91506040840135613b9a816138c8565b809150509250925092565b600060208284031215613bb757600080fd5b81356127d8816137b2565b600080600060408486031215613bd757600080fd5b8335613be2816137b2565b925060208401356001600160401b0380821115613bfe57600080fd5b818601915086601f830112613c1257600080fd5b813581811115613c2157600080fd5b8760208260061b8501011115613c3657600080fd5b6020830194508093505050509250925092565b60008060408385031215613c5c57600080fd5b8235613adb816137c5565b600060808284031215613c7957600080fd5b604051608081018181106001600160401b0382111715613c9b57613c9b613963565b6040528235613ca9816138c8565b808252506020830135602082015260408301356040820152606083013560608201528091505092915050565b60005b83811015613cf0578181015183820152602001613cd8565b50506000910152565b60008151808452613d11816020860160208601613cd5565b601f01601f19169290920160200192915050565b6020815260006127d86020830184613cf9565b6020808252825182820181905260009190848201906040850190845b81811015613d795783516001600160a01b031683529284019291840191600101613d54565b50909695505050505050565b600080600060608486031215613d9a57600080fd5b8335613da5816137b2565b92506020840135613db5816137c5565b929592945050506040919091013590565b60208082526014908201527331b0b63632b9103737ba103a34329037bbb732b960611b604082015260600190565b6020808252600b908201526a3bb937b7339031b430b4b760a91b604082015260600190565b600060208284031215613e2b57600080fd5b5051919050565b634e487b7160e01b600052601160045260246000fd5b60ff8281168282160390811115610e6a57610e6a613e32565b600181815b80851115613e9c578160001904821115613e8257613e82613e32565b80851615613e8f57918102915b93841c9390800290613e66565b509250929050565b600082613eb357506001610e6a565b81613ec057506000610e6a565b8160018114613ed65760028114613ee057613efc565b6001915050610e6a565b60ff841115613ef157613ef1613e32565b50506001821b610e6a565b5060208310610133831016604e8410600b8410161715613f1f575081810a610e6a565b613f298383613e61565b8060001904821115613f3d57613f3d613e32565b029392505050565b60006127d860ff841683613ea4565b600082613f7157634e487b7160e01b600052601260045260246000fd5b500490565b8082028115828204841417610e6a57610e6a613e32565b81810381811115610e6a57610e6a613e32565b600060208284031215613fb257600080fd5b81516127d8816137c5565b80820180821115610e6a57610e6a613e32565b60208082526021908201527f63616c6c6572206e6f7420746865206f776e6572206f7220617373697374616e6040820152601d60fa1b606082015260800190565b634e487b7160e01b600052603260045260246000fd5b6020808252601290820152711d1bdad95b881b9bdd081858d8d95c1d195960721b604082015260600190565b60008184825b8581101561409357813561406c816137c5565b6001600160a01b031683526020828101359084015260409283019290910190600101614059565b509095945050505050565b634e487b7160e01b600052603160045260246000fd5b600082516140c6818460208701613cd5565b9190910192915050565b80516140db816138c8565b919050565b6000602082840312156140f257600080fd5b81516127d8816138c8565b60018060a01b038716815285602082015261ffff8516604082015283606082015263ffffffff8316608082015260c060a0820152600061414060c0830184613cf9565b98975050505050505050565b80516001600160401b03811681146140db57600080fd5b60006020828403121561417557600080fd5b6127d88261414c565b80516140db81613813565b80516140db816137b2565b600082601f8301126141a557600080fd5b81516141b3613a8582613a17565b8181528460208386010111156141c857600080fd5b61280d826020830160208701613cd5565b600082601f8301126141ea57600080fd5b815160206001600160401b0382111561420557614205613963565b614213818360051b016139e7565b82815260079290921b8401810191818101908684111561423257600080fd5b8286015b84811015614297576080818903121561424f5760008081fd5b614257613979565b815181528482015185820152604080830151614272816138c8565b90820152606082810151614285816138c8565b90820152835291830191608001614236565b509695505050505050565b6000602082840312156142b457600080fd5b81516001600160401b03808211156142cb57600080fd5b9083019061016082860312156142e057600080fd5b6142e86139a1565b6142f1836140d0565b81526142ff6020840161417e565b60208201526143106040840161417e565b604082015261432160608401614189565b60608201526080830151608082015261433c60a0840161414c565b60a082015261434d60c084016140d0565b60c082015260e08301518281111561436457600080fd5b61437087828601614194565b60e08301525061010061438481850161417e565b90820152610120838101518381111561439c57600080fd5b6143a8888287016141d9565b91830191909152506101409283015192810192909252509392505050565b6000602082840312156143d857600080fd5b81516001600160401b038111156143ee57600080fd5b61280d84828501614194565b60006020828403121561440c57600080fd5b81516001600160401b038082111561442357600080fd5b90830190610100828603121561443857600080fd5b6144406139c4565b614449836140d0565b8152602083015160208201526040830151604082015261446b60608401614189565b60608201526080830151608082015261448660a08401614189565b60a082015260c083015160c082015260e0830151828111156144a757600080fd5b6144b387828601614194565b60e08301525095945050505050565b6000602082840312156144d457600080fd5b81516127d88161388c56fea26469706673582212204380a2c16f3d3a94e16ceec8dd417389a415486e9286774f1ba51d1e17ea374064736f6c63430008110033","linkReferences":{}},"methodIdentifiers":{"VERSION()":"ffa1ad74","WETH()":"ad5c4648","calculateMaxSwapAmountIn(address)":"cd601c78","calculateNativeSwapAmountOut(address,uint256)":"8e151dd1","calculateRelayerFee(uint16,address,uint8)":"39ba6611","cancelOwnershipTransferRequest(uint16)":"a2f32c8f","chainId()":"9a8a0592","completeTransferWithRelay(bytes)":"2f25e25f","confirmOwnershipTransferRequest()":"038c0b66","decodeTransferWithRelay(bytes)":"7c9dec7a","denormalizeAmount(uint256,uint8)":"28ded8e3","deregisterToken(uint16,address)":"016aa205","encodeTransferWithRelay((uint8,uint256,uint256,bytes32))":"9fe089ad","feeRecipient()":"46904840","fetchLocalAddressFromTransferMessage(bytes)":"2d77e8fe","getAcceptedTokensList()":"df160d76","getPaused()":"6805b84b","getRegisteredContract(uint16)":"3d62cca0","isAcceptedToken(address)":"3b6e750f","maxNativeSwapAmount(address)":"2efe4f42","nativeSwapRate(address)":"b5419523","normalizeAmount(uint256,uint8)":"27105ab9","owner()":"8da5cb5b","ownerAssistant()":"68aa9ef4","pendingOwner()":"e30c3978","registerContract(uint16,bytes32)":"51e2d7b5","registerToken(uint16,address)":"c9c22f9f","relayerFee(uint16)":"66775a6b","relayerFeePrecision()":"415828bf","setPauseForTransfers(uint16,bool)":"1a282195","submitOwnershipTransferRequest(uint16,address)":"94cc743d","swapRate(address)":"2ca8008c","swapRatePrecision()":"1acdab4b","tokenBridge()":"c6328a46","transferTokensWithRelay(address,uint256,uint256,uint16,bytes32,uint32)":"1019d654","unwrapWeth()":"9cf278cd","updateFeeRecipient(uint16,address)":"203c5095","updateMaxNativeSwapAmount(uint16,address,uint256)":"fff982a8","updateOwnerAssistant(uint16,address)":"ea1d2e4a","updateRelayerFee(uint16,uint256)":"5b9cf0e1","updateRelayerFeePrecision(uint16,uint256)":"90a1afaa","updateSwapRate(uint16,(address,uint256)[])":"640d946b","updateSwapRatePrecision(uint16,uint256)":"2def3e16","updateUnwrapWethFlag(uint16,bool)":"8335572f","wormhole()":"84acd1bb","wrapAndTransferEthWithRelay(uint256,uint16,bytes32,uint32)":"29ac8361"},"storageLayout":{"storage":[{"astId":58114,"contract":"src/token-bridge-relayer/TokenBridgeRelayer.sol:TokenBridgeRelayer","label":"_state","offset":0,"slot":"0","type":"t_struct(State)58110_storage"},{"astId":52676,"contract":"src/token-bridge-relayer/TokenBridgeRelayer.sol:TokenBridgeRelayer","label":"_status","offset":0,"slot":"15","type":"t_uint256"}],"types":{"t_address":{"encoding":"inplace","label":"address","numberOfBytes":"20"},"t_array(t_address)dyn_storage":{"encoding":"dynamic_array","label":"address[]","numberOfBytes":"32","base":"t_address"},"t_bool":{"encoding":"inplace","label":"bool","numberOfBytes":"1"},"t_bytes32":{"encoding":"inplace","label":"bytes32","numberOfBytes":"32"},"t_mapping(t_address,t_bool)":{"encoding":"mapping","key":"t_address","label":"mapping(address => bool)","numberOfBytes":"32","value":"t_bool"},"t_mapping(t_address,t_uint256)":{"encoding":"mapping","key":"t_address","label":"mapping(address => uint256)","numberOfBytes":"32","value":"t_uint256"},"t_mapping(t_uint16,t_bytes32)":{"encoding":"mapping","key":"t_uint16","label":"mapping(uint16 => bytes32)","numberOfBytes":"32","value":"t_bytes32"},"t_mapping(t_uint16,t_uint256)":{"encoding":"mapping","key":"t_uint16","label":"mapping(uint16 => uint256)","numberOfBytes":"32","value":"t_uint256"},"t_struct(State)58110_storage":{"encoding":"inplace","label":"struct TokenBridgeRelayerStorage.State","numberOfBytes":"480","members":[{"astId":58063,"contract":"src/token-bridge-relayer/TokenBridgeRelayer.sol:TokenBridgeRelayer","label":"chainId","offset":0,"slot":"0","type":"t_uint16"},{"astId":58065,"contract":"src/token-bridge-relayer/TokenBridgeRelayer.sol:TokenBridgeRelayer","label":"unwrapWeth","offset":2,"slot":"0","type":"t_bool"},{"astId":58067,"contract":"src/token-bridge-relayer/TokenBridgeRelayer.sol:TokenBridgeRelayer","label":"paused","offset":3,"slot":"0","type":"t_bool"},{"astId":58069,"contract":"src/token-bridge-relayer/TokenBridgeRelayer.sol:TokenBridgeRelayer","label":"wethAddress","offset":4,"slot":"0","type":"t_address"},{"astId":58071,"contract":"src/token-bridge-relayer/TokenBridgeRelayer.sol:TokenBridgeRelayer","label":"owner","offset":0,"slot":"1","type":"t_address"},{"astId":58073,"contract":"src/token-bridge-relayer/TokenBridgeRelayer.sol:TokenBridgeRelayer","label":"ownerAssistant","offset":0,"slot":"2","type":"t_address"},{"astId":58075,"contract":"src/token-bridge-relayer/TokenBridgeRelayer.sol:TokenBridgeRelayer","label":"feeRecipient","offset":0,"slot":"3","type":"t_address"},{"astId":58077,"contract":"src/token-bridge-relayer/TokenBridgeRelayer.sol:TokenBridgeRelayer","label":"pendingOwner","offset":0,"slot":"4","type":"t_address"},{"astId":58079,"contract":"src/token-bridge-relayer/TokenBridgeRelayer.sol:TokenBridgeRelayer","label":"wormhole","offset":0,"slot":"5","type":"t_address"},{"astId":58081,"contract":"src/token-bridge-relayer/TokenBridgeRelayer.sol:TokenBridgeRelayer","label":"tokenBridge","offset":0,"slot":"6","type":"t_address"},{"astId":58083,"contract":"src/token-bridge-relayer/TokenBridgeRelayer.sol:TokenBridgeRelayer","label":"swapRatePrecision","offset":0,"slot":"7","type":"t_uint256"},{"astId":58085,"contract":"src/token-bridge-relayer/TokenBridgeRelayer.sol:TokenBridgeRelayer","label":"relayerFeePrecision","offset":0,"slot":"8","type":"t_uint256"},{"astId":58089,"contract":"src/token-bridge-relayer/TokenBridgeRelayer.sol:TokenBridgeRelayer","label":"registeredContracts","offset":0,"slot":"9","type":"t_mapping(t_uint16,t_bytes32)"},{"astId":58093,"contract":"src/token-bridge-relayer/TokenBridgeRelayer.sol:TokenBridgeRelayer","label":"swapRates","offset":0,"slot":"10","type":"t_mapping(t_address,t_uint256)"},{"astId":58098,"contract":"src/token-bridge-relayer/TokenBridgeRelayer.sol:TokenBridgeRelayer","label":"maxNativeSwapAmount","offset":0,"slot":"11","type":"t_mapping(t_address,t_uint256)"},{"astId":58102,"contract":"src/token-bridge-relayer/TokenBridgeRelayer.sol:TokenBridgeRelayer","label":"relayerFees","offset":0,"slot":"12","type":"t_mapping(t_uint16,t_uint256)"},{"astId":58106,"contract":"src/token-bridge-relayer/TokenBridgeRelayer.sol:TokenBridgeRelayer","label":"acceptedTokens","offset":0,"slot":"13","type":"t_mapping(t_address,t_bool)"},{"astId":58109,"contract":"src/token-bridge-relayer/TokenBridgeRelayer.sol:TokenBridgeRelayer","label":"acceptedTokensList","offset":0,"slot":"14","type":"t_array(t_address)dyn_storage"}]},"t_uint16":{"encoding":"inplace","label":"uint16","numberOfBytes":"2"},"t_uint256":{"encoding":"inplace","label":"uint256","numberOfBytes":"32"}}},"id":43}