{
  "_format": "hh-sol-artifact-1",
  "contractName": "NFT",
  "sourceName": "contracts/NFT.sol",
  "abi": [
    {
      "inputs": [
        {
          "internalType": "string",
          "name": "name",
          "type": "string"
        },
        {
          "internalType": "string",
          "name": "symbol",
          "type": "string"
        },
        {
          "internalType": "uint256",
          "name": "_mintPrice",
          "type": "uint256"
        }
      ],
      "stateMutability": "nonpayable",
      "type": "constructor"
    },
    {
      "anonymous": false,
      "inputs": [
        {
          "indexed": true,
          "internalType": "address",
          "name": "owner",
          "type": "address"
        },
        {
          "indexed": true,
          "internalType": "address",
          "name": "approved",
          "type": "address"
        },
        {
          "indexed": true,
          "internalType": "uint256",
          "name": "tokenId",
          "type": "uint256"
        }
      ],
      "name": "Approval",
      "type": "event"
    },
    {
      "anonymous": false,
      "inputs": [
        {
          "indexed": true,
          "internalType": "address",
          "name": "owner",
          "type": "address"
        },
        {
          "indexed": true,
          "internalType": "address",
          "name": "operator",
          "type": "address"
        },
        {
          "indexed": false,
          "internalType": "bool",
          "name": "approved",
          "type": "bool"
        }
      ],
      "name": "ApprovalForAll",
      "type": "event"
    },
    {
      "anonymous": false,
      "inputs": [
        {
          "indexed": true,
          "internalType": "address",
          "name": "owner",
          "type": "address"
        },
        {
          "indexed": true,
          "internalType": "uint256",
          "name": "tokenId",
          "type": "uint256"
        }
      ],
      "name": "Minted",
      "type": "event"
    },
    {
      "anonymous": false,
      "inputs": [
        {
          "indexed": true,
          "internalType": "address",
          "name": "previousOwner",
          "type": "address"
        },
        {
          "indexed": true,
          "internalType": "address",
          "name": "newOwner",
          "type": "address"
        }
      ],
      "name": "OwnershipTransferred",
      "type": "event"
    },
    {
      "anonymous": false,
      "inputs": [
        {
          "indexed": true,
          "internalType": "address",
          "name": "from",
          "type": "address"
        },
        {
          "indexed": true,
          "internalType": "address",
          "name": "to",
          "type": "address"
        },
        {
          "indexed": true,
          "internalType": "uint256",
          "name": "tokenId",
          "type": "uint256"
        }
      ],
      "name": "Transfer",
      "type": "event"
    },
    {
      "inputs": [],
      "name": "_baseTokenURI",
      "outputs": [
        {
          "internalType": "string",
          "name": "",
          "type": "string"
        }
      ],
      "stateMutability": "view",
      "type": "function"
    },
    {
      "inputs": [
        {
          "internalType": "address",
          "name": "to",
          "type": "address"
        },
        {
          "internalType": "uint256",
          "name": "tokenId",
          "type": "uint256"
        }
      ],
      "name": "approve",
      "outputs": [],
      "stateMutability": "nonpayable",
      "type": "function"
    },
    {
      "inputs": [
        {
          "internalType": "address",
          "name": "owner",
          "type": "address"
        }
      ],
      "name": "balanceOf",
      "outputs": [
        {
          "internalType": "uint256",
          "name": "",
          "type": "uint256"
        }
      ],
      "stateMutability": "view",
      "type": "function"
    },
    {
      "inputs": [
        {
          "internalType": "uint256",
          "name": "tokenId",
          "type": "uint256"
        }
      ],
      "name": "getApproved",
      "outputs": [
        {
          "internalType": "address",
          "name": "",
          "type": "address"
        }
      ],
      "stateMutability": "view",
      "type": "function"
    },
    {
      "inputs": [
        {
          "internalType": "address",
          "name": "owner",
          "type": "address"
        }
      ],
      "name": "getOwnedTokens",
      "outputs": [
        {
          "internalType": "uint256[]",
          "name": "",
          "type": "uint256[]"
        }
      ],
      "stateMutability": "view",
      "type": "function"
    },
    {
      "inputs": [
        {
          "internalType": "address",
          "name": "owner",
          "type": "address"
        },
        {
          "internalType": "address",
          "name": "operator",
          "type": "address"
        }
      ],
      "name": "isApprovedForAll",
      "outputs": [
        {
          "internalType": "bool",
          "name": "",
          "type": "bool"
        }
      ],
      "stateMutability": "view",
      "type": "function"
    },
    {
      "inputs": [],
      "name": "mint",
      "outputs": [],
      "stateMutability": "payable",
      "type": "function"
    },
    {
      "inputs": [],
      "name": "mintPrice",
      "outputs": [
        {
          "internalType": "uint256",
          "name": "",
          "type": "uint256"
        }
      ],
      "stateMutability": "view",
      "type": "function"
    },
    {
      "inputs": [],
      "name": "name",
      "outputs": [
        {
          "internalType": "string",
          "name": "",
          "type": "string"
        }
      ],
      "stateMutability": "view",
      "type": "function"
    },
    {
      "inputs": [],
      "name": "nextTokenId",
      "outputs": [
        {
          "internalType": "uint256",
          "name": "",
          "type": "uint256"
        }
      ],
      "stateMutability": "view",
      "type": "function"
    },
    {
      "inputs": [],
      "name": "owner",
      "outputs": [
        {
          "internalType": "address",
          "name": "",
          "type": "address"
        }
      ],
      "stateMutability": "view",
      "type": "function"
    },
    {
      "inputs": [
        {
          "internalType": "uint256",
          "name": "tokenId",
          "type": "uint256"
        }
      ],
      "name": "ownerOf",
      "outputs": [
        {
          "internalType": "address",
          "name": "",
          "type": "address"
        }
      ],
      "stateMutability": "view",
      "type": "function"
    },
    {
      "inputs": [],
      "name": "renounceOwnership",
      "outputs": [],
      "stateMutability": "nonpayable",
      "type": "function"
    },
    {
      "inputs": [
        {
          "internalType": "address",
          "name": "from",
          "type": "address"
        },
        {
          "internalType": "address",
          "name": "to",
          "type": "address"
        },
        {
          "internalType": "uint256",
          "name": "tokenId",
          "type": "uint256"
        }
      ],
      "name": "safeTransferFrom",
      "outputs": [],
      "stateMutability": "nonpayable",
      "type": "function"
    },
    {
      "inputs": [
        {
          "internalType": "address",
          "name": "from",
          "type": "address"
        },
        {
          "internalType": "address",
          "name": "to",
          "type": "address"
        },
        {
          "internalType": "uint256",
          "name": "tokenId",
          "type": "uint256"
        },
        {
          "internalType": "bytes",
          "name": "data",
          "type": "bytes"
        }
      ],
      "name": "safeTransferFrom",
      "outputs": [],
      "stateMutability": "nonpayable",
      "type": "function"
    },
    {
      "inputs": [
        {
          "internalType": "address",
          "name": "operator",
          "type": "address"
        },
        {
          "internalType": "bool",
          "name": "approved",
          "type": "bool"
        }
      ],
      "name": "setApprovalForAll",
      "outputs": [],
      "stateMutability": "nonpayable",
      "type": "function"
    },
    {
      "inputs": [
        {
          "internalType": "string",
          "name": "baseURI_",
          "type": "string"
        }
      ],
      "name": "setBaseURI",
      "outputs": [],
      "stateMutability": "nonpayable",
      "type": "function"
    },
    {
      "inputs": [
        {
          "internalType": "bytes4",
          "name": "interfaceId",
          "type": "bytes4"
        }
      ],
      "name": "supportsInterface",
      "outputs": [
        {
          "internalType": "bool",
          "name": "",
          "type": "bool"
        }
      ],
      "stateMutability": "view",
      "type": "function"
    },
    {
      "inputs": [],
      "name": "symbol",
      "outputs": [
        {
          "internalType": "string",
          "name": "",
          "type": "string"
        }
      ],
      "stateMutability": "view",
      "type": "function"
    },
    {
      "inputs": [
        {
          "internalType": "uint256",
          "name": "index",
          "type": "uint256"
        }
      ],
      "name": "tokenByIndex",
      "outputs": [
        {
          "internalType": "uint256",
          "name": "",
          "type": "uint256"
        }
      ],
      "stateMutability": "view",
      "type": "function"
    },
    {
      "inputs": [
        {
          "internalType": "address",
          "name": "owner",
          "type": "address"
        },
        {
          "internalType": "uint256",
          "name": "index",
          "type": "uint256"
        }
      ],
      "name": "tokenOfOwnerByIndex",
      "outputs": [
        {
          "internalType": "uint256",
          "name": "",
          "type": "uint256"
        }
      ],
      "stateMutability": "view",
      "type": "function"
    },
    {
      "inputs": [
        {
          "internalType": "uint256",
          "name": "tokenId",
          "type": "uint256"
        }
      ],
      "name": "tokenURI",
      "outputs": [
        {
          "internalType": "string",
          "name": "",
          "type": "string"
        }
      ],
      "stateMutability": "view",
      "type": "function"
    },
    {
      "inputs": [],
      "name": "totalSupply",
      "outputs": [
        {
          "internalType": "uint256",
          "name": "",
          "type": "uint256"
        }
      ],
      "stateMutability": "view",
      "type": "function"
    },
    {
      "inputs": [
        {
          "internalType": "address",
          "name": "from",
          "type": "address"
        },
        {
          "internalType": "address",
          "name": "to",
          "type": "address"
        },
        {
          "internalType": "uint256",
          "name": "tokenId",
          "type": "uint256"
        }
      ],
      "name": "transferFrom",
      "outputs": [],
      "stateMutability": "nonpayable",
      "type": "function"
    },
    {
      "inputs": [
        {
          "internalType": "address",
          "name": "newOwner",
          "type": "address"
        }
      ],
      "name": "transferOwnership",
      "outputs": [],
      "stateMutability": "nonpayable",
      "type": "function"
    },
    {
      "inputs": [],
      "name": "withdraw",
      "outputs": [],
      "stateMutability": "nonpayable",
      "type": "function"
    }
  ],
  "bytecode": "0x60806040523480156200001157600080fd5b50604051620022063803806200220683398101604081905262000034916200019b565b828260006200004483826200029d565b5060016200005382826200029d565b505050620000706200006a6200008060201b60201c565b62000084565b600b5550506001600c5562000369565b3390565b600a80546001600160a01b038381166001600160a01b0319831681179093556040519116919082907f8be0079c531659141344cd1fd0a4f28419497f9722a3daafe3b4186f6b6457e090600090a35050565b634e487b7160e01b600052604160045260246000fd5b600082601f830112620000fe57600080fd5b81516001600160401b03808211156200011b576200011b620000d6565b604051601f8301601f19908116603f01168101908282118183101715620001465762000146620000d6565b816040528381526020925086838588010111156200016357600080fd5b600091505b8382101562000187578582018301518183018401529082019062000168565b600093810190920192909252949350505050565b600080600060608486031215620001b157600080fd5b83516001600160401b0380821115620001c957600080fd5b620001d787838801620000ec565b94506020860151915080821115620001ee57600080fd5b50620001fd86828701620000ec565b925050604084015190509250925092565b600181811c908216806200022357607f821691505b6020821081036200024457634e487b7160e01b600052602260045260246000fd5b50919050565b601f8211156200029857600081815260208120601f850160051c81016020861015620002735750805b601f850160051c820191505b8181101562000294578281556001016200027f565b5050505b505050565b81516001600160401b03811115620002b957620002b9620000d6565b620002d181620002ca84546200020e565b846200024a565b602080601f831160018114620003095760008415620002f05750858301515b600019600386901b1c1916600185901b17855562000294565b600085815260208120601f198616915b828110156200033a5788860151825594840194600190910190840162000319565b5085821015620003595787850151600019600388901b60f8161c191681555b5050505050600190811b01905550565b611e8d80620003796000396000f3fe6080604052600436106101415760003560e01c80636817c76c116100b15780636817c76c146102f357806370a0823114610309578063715018a61461032957806375794a3c1461033e5780638da5cb5b1461035457806395d89b4114610369578063a22cb4651461037e578063b88d4fde1461039e578063c87b56dd146103be578063cfc86f7b146103de578063d9d61655146103f3578063e985e9c514610420578063f2fde38b1461044057600080fd5b806301ffc9a71461014657806306fdde031461017b578063081812fc1461019d578063095ea7b3146101d55780631249c58b146101f757806318160ddd146101ff57806323b872dd1461021e5780632f745c591461023e5780633ccfd60b1461025e57806342842e0e146102735780634f6ccce71461029357806355f804b3146102b35780636352211e146102d3575b600080fd5b34801561015257600080fd5b50610166610161366004611795565b610460565b60405190151581526020015b60405180910390f35b34801561018757600080fd5b5061019061048b565b6040516101729190611802565b3480156101a957600080fd5b506101bd6101b8366004611815565b61051d565b6040516001600160a01b039091168152602001610172565b3480156101e157600080fd5b506101f56101f036600461184a565b610544565b005b6101f561065e565b34801561020b57600080fd5b506008545b604051908152602001610172565b34801561022a57600080fd5b506101f5610239366004611874565b610701565b34801561024a57600080fd5b5061021061025936600461184a565b610732565b34801561026a57600080fd5b506101f56107c8565b34801561027f57600080fd5b506101f561028e366004611874565b610813565b34801561029f57600080fd5b506102106102ae366004611815565b61082e565b3480156102bf57600080fd5b506101f56102ce36600461193b565b6108c1565b3480156102df57600080fd5b506101bd6102ee366004611815565b6108d9565b3480156102ff57600080fd5b50610210600b5481565b34801561031557600080fd5b50610210610324366004611983565b61090d565b34801561033557600080fd5b506101f5610993565b34801561034a57600080fd5b50610210600c5481565b34801561036057600080fd5b506101bd6109a7565b34801561037557600080fd5b506101906109b6565b34801561038a57600080fd5b506101f561039936600461199e565b6109c5565b3480156103aa57600080fd5b506101f56103b93660046119da565b6109d0565b3480156103ca57600080fd5b506101906103d9366004611815565b610a08565b3480156103ea57600080fd5b50610190610a6f565b3480156103ff57600080fd5b5061041361040e366004611983565b610afd565b6040516101729190611a55565b34801561042c57600080fd5b5061016661043b366004611a99565b610b9e565b34801561044c57600080fd5b506101f561045b366004611983565b610bcc565b60006001600160e01b0319821663780e9d6360e01b1480610485575061048582610c42565b92915050565b60606000805461049a90611acc565b80601f01602080910402602001604051908101604052809291908181526020018280546104c690611acc565b80156105135780601f106104e857610100808354040283529160200191610513565b820191906000526020600020905b8154815290600101906020018083116104f657829003601f168201915b5050505050905090565b600061052882610c92565b506000908152600460205260409020546001600160a01b031690565b600061054f826108d9565b9050806001600160a01b0316836001600160a01b0316036105c15760405162461bcd60e51b815260206004820152602160248201527f4552433732313a20617070726f76616c20746f2063757272656e74206f776e656044820152603960f91b60648201526084015b60405180910390fd5b336001600160a01b03821614806105dd57506105dd8133610b9e565b61064f5760405162461bcd60e51b815260206004820152603d60248201527f4552433732313a20617070726f76652063616c6c6572206973206e6f7420746f60448201527f6b656e206f776e6572206f7220617070726f76656420666f7220616c6c00000060648201526084016105b8565b6106598383610cb7565b505050565b600b543410156106b05760405162461bcd60e51b815260206004820152601e60248201527f496e73756666696369656e742066756e647320746f206d696e74204e4654000060448201526064016105b8565b600c805490819060006106c283611b1c565b91905055506106d13382610d25565b604051819033907f30385c845b448a36257a6a1716e6ad2e1bc2cbe333cde1e69fe849ad6511adfe90600090a350565b61070b3382610d3f565b6107275760405162461bcd60e51b81526004016105b890611b35565b610659838383610d9e565b600061073d8361090d565b821061079f5760405162461bcd60e51b815260206004820152602b60248201527f455243373231456e756d657261626c653a206f776e657220696e646578206f7560448201526a74206f6620626f756e647360a81b60648201526084016105b8565b506001600160a01b03919091166000908152600660209081526040808320938352929052205490565b6107d0610f0f565b6107d86109a7565b6001600160a01b03166108fc479081150290604051600060405180830381858888f19350505050158015610810573d6000803e3d6000fd5b50565b610659838383604051806020016040528060008152506109d0565b600061083960085490565b821061089c5760405162461bcd60e51b815260206004820152602c60248201527f455243373231456e756d657261626c653a20676c6f62616c20696e646578206f60448201526b7574206f6620626f756e647360a01b60648201526084016105b8565b600882815481106108af576108af611b82565b90600052602060002001549050919050565b6108c9610f0f565b600d6108d58282611be6565b5050565b6000806108e583610f6e565b90506001600160a01b0381166104855760405162461bcd60e51b81526004016105b890611ca5565b60006001600160a01b0382166109775760405162461bcd60e51b815260206004820152602960248201527f4552433732313a2061646472657373207a65726f206973206e6f7420612076616044820152683634b21037bbb732b960b91b60648201526084016105b8565b506001600160a01b031660009081526003602052604090205490565b61099b610f0f565b6109a56000610f89565b565b600a546001600160a01b031690565b60606001805461049a90611acc565b6108d5338383610fdb565b6109da3383610d3f565b6109f65760405162461bcd60e51b81526004016105b890611b35565b610a02848484846110a5565b50505050565b6060610a1382610c92565b6000610a1d6110d8565b90506000815111610a3d5760405180602001604052806000815250610a68565b80610a47846110e7565b604051602001610a58929190611cd7565b6040516020818303038152906040525b9392505050565b600d8054610a7c90611acc565b80601f0160208091040260200160405190810160405280929190818152602001828054610aa890611acc565b8015610af55780601f10610aca57610100808354040283529160200191610af5565b820191906000526020600020905b815481529060010190602001808311610ad857829003601f168201915b505050505081565b60606000610b0a8361090d565b90506000816001600160401b03811115610b2657610b266118b0565b604051908082528060200260200182016040528015610b4f578160200160208202803683370190505b50905060005b82811015610b9657610b678582610732565b828281518110610b7957610b79611b82565b602090810291909101015280610b8e81611b1c565b915050610b55565b509392505050565b6001600160a01b03918216600090815260056020908152604080832093909416825291909152205460ff1690565b610bd4610f0f565b6001600160a01b038116610c395760405162461bcd60e51b815260206004820152602660248201527f4f776e61626c653a206e6577206f776e657220697320746865207a65726f206160448201526564647265737360d01b60648201526084016105b8565b61081081610f89565b60006001600160e01b031982166380ac58cd60e01b1480610c7357506001600160e01b03198216635b5e139f60e01b145b8061048557506301ffc9a760e01b6001600160e01b0319831614610485565b610c9b81611179565b6108105760405162461bcd60e51b81526004016105b890611ca5565b600081815260046020526040902080546001600160a01b0319166001600160a01b0384169081179091558190610cec826108d9565b6001600160a01b03167f8c5be1e5ebec7d5bd14f71427d1e84f3dd0314c0f7b2291e5b200ac8c7c3b92560405160405180910390a45050565b6108d5828260405180602001604052806000815250611196565b600080610d4b836108d9565b9050806001600160a01b0316846001600160a01b03161480610d725750610d728185610b9e565b80610d965750836001600160a01b0316610d8b8461051d565b6001600160a01b0316145b949350505050565b826001600160a01b0316610db1826108d9565b6001600160a01b031614610dd75760405162461bcd60e51b81526004016105b890611d06565b6001600160a01b038216610e395760405162461bcd60e51b8152602060048201526024808201527f4552433732313a207472616e7366657220746f20746865207a65726f206164646044820152637265737360e01b60648201526084016105b8565b610e4683838360016111c9565b826001600160a01b0316610e59826108d9565b6001600160a01b031614610e7f5760405162461bcd60e51b81526004016105b890611d06565b600081815260046020908152604080832080546001600160a01b03199081169091556001600160a01b0387811680865260038552838620805460001901905590871680865283862080546001019055868652600290945282852080549092168417909155905184937fddf252ad1be2c89b69c2b068fc378daa952ba7f163c4a11628f55a4df523b3ef91a4505050565b33610f186109a7565b6001600160a01b0316146109a55760405162461bcd60e51b815260206004820181905260248201527f4f776e61626c653a2063616c6c6572206973206e6f7420746865206f776e657260448201526064016105b8565b6000908152600260205260409020546001600160a01b031690565b600a80546001600160a01b038381166001600160a01b0319831681179093556040519116919082907f8be0079c531659141344cd1fd0a4f28419497f9722a3daafe3b4186f6b6457e090600090a35050565b816001600160a01b0316836001600160a01b0316036110385760405162461bcd60e51b815260206004820152601960248201527822a9219b99189d1030b8383937bb32903a379031b0b63632b960391b60448201526064016105b8565b6001600160a01b03838116600081815260056020908152604080832094871680845294825291829020805460ff191686151590811790915591519182527f17307eab39ab6107e8899845ad3d59bd9653f200f220920489ca2b5937696c31910160405180910390a3505050565b6110b0848484610d9e565b6110bc848484846112fd565b610a025760405162461bcd60e51b81526004016105b890611d4b565b6060600d805461049a90611acc565b606060006110f4836113fe565b60010190506000816001600160401b03811115611113576111136118b0565b6040519080825280601f01601f19166020018201604052801561113d576020820181803683370190505b5090508181016020015b600019016f181899199a1a9b1b9c1cb0b131b232b360811b600a86061a8153600a850494508461114757509392505050565b60008061118583610f6e565b6001600160a01b0316141592915050565b6111a083836114d4565b6111ad60008484846112fd565b6106595760405162461bcd60e51b81526004016105b890611d4b565b60018111156112385760405162461bcd60e51b815260206004820152603560248201527f455243373231456e756d657261626c653a20636f6e7365637574697665207472604482015274185b9cd9995c9cc81b9bdd081cdd5c1c1bdc9d1959605a1b60648201526084016105b8565b816001600160a01b0385166112945761128f81600880546000838152600960205260408120829055600182018355919091527ff3f7a9fe364faab93b216da50a3214154f22a0a2b415b23a84c8169e8b636ee30155565b6112b7565b836001600160a01b0316856001600160a01b0316146112b7576112b785826115ef565b6001600160a01b0384166112d3576112ce8161168c565b6112f6565b846001600160a01b0316846001600160a01b0316146112f6576112f6848261173b565b5050505050565b60006001600160a01b0384163b156113f357604051630a85bd0160e11b81526001600160a01b0385169063150b7a0290611341903390899088908890600401611d9d565b6020604051808303816000875af192505050801561137c575060408051601f3d908101601f1916820190925261137991810190611dda565b60015b6113d9573d8080156113aa576040519150601f19603f3d011682016040523d82523d6000602084013e6113af565b606091505b5080516000036113d15760405162461bcd60e51b81526004016105b890611d4b565b805181602001fd5b6001600160e01b031916630a85bd0160e11b149050610d96565b506001949350505050565b60008072184f03e93ff9f4daa797ed6e38ed64bf6a1f0160401b831061143d5772184f03e93ff9f4daa797ed6e38ed64bf6a1f0160401b830492506040015b6904ee2d6d415b85acef8160201b8310611467576904ee2d6d415b85acef8160201b830492506020015b662386f26fc10000831061148557662386f26fc10000830492506010015b6305f5e100831061149d576305f5e100830492506008015b61271083106114b157612710830492506004015b606483106114c3576064830492506002015b600a83106104855760010192915050565b6001600160a01b03821661152a5760405162461bcd60e51b815260206004820181905260248201527f4552433732313a206d696e7420746f20746865207a65726f206164647265737360448201526064016105b8565b61153381611179565b156115505760405162461bcd60e51b81526004016105b890611df7565b61155e6000838360016111c9565b61156781611179565b156115845760405162461bcd60e51b81526004016105b890611df7565b6001600160a01b038216600081815260036020908152604080832080546001019055848352600290915280822080546001600160a01b0319168417905551839291907fddf252ad1be2c89b69c2b068fc378daa952ba7f163c4a11628f55a4df523b3ef908290a45050565b600060016115fc8461090d565b6116069190611e2e565b600083815260076020526040902054909150808214611659576001600160a01b03841660009081526006602090815260408083208584528252808320548484528184208190558352600790915290208190555b5060009182526007602090815260408084208490556001600160a01b039094168352600681528383209183525290812055565b60085460009061169e90600190611e2e565b600083815260096020526040812054600880549394509092849081106116c6576116c6611b82565b9060005260206000200154905080600883815481106116e7576116e7611b82565b600091825260208083209091019290925582815260099091526040808220849055858252812055600880548061171f5761171f611e41565b6001900381819060005260206000200160009055905550505050565b60006117468361090d565b6001600160a01b039093166000908152600660209081526040808320868452825280832085905593825260079052919091209190915550565b6001600160e01b03198116811461081057600080fd5b6000602082840312156117a757600080fd5b8135610a688161177f565b60005b838110156117cd5781810151838201526020016117b5565b50506000910152565b600081518084526117ee8160208601602086016117b2565b601f01601f19169290920160200192915050565b602081526000610a6860208301846117d6565b60006020828403121561182757600080fd5b5035919050565b80356001600160a01b038116811461184557600080fd5b919050565b6000806040838503121561185d57600080fd5b6118668361182e565b946020939093013593505050565b60008060006060848603121561188957600080fd5b6118928461182e565b92506118a06020850161182e565b9150604084013590509250925092565b634e487b7160e01b600052604160045260246000fd5b60006001600160401b03808411156118e0576118e06118b0565b604051601f8501601f19908116603f01168101908282118183101715611908576119086118b0565b8160405280935085815286868601111561192157600080fd5b858560208301376000602087830101525050509392505050565b60006020828403121561194d57600080fd5b81356001600160401b0381111561196357600080fd5b8201601f8101841361197457600080fd5b610d96848235602084016118c6565b60006020828403121561199557600080fd5b610a688261182e565b600080604083850312156119b157600080fd5b6119ba8361182e565b9150602083013580151581146119cf57600080fd5b809150509250929050565b600080600080608085870312156119f057600080fd5b6119f98561182e565b9350611a076020860161182e565b92506040850135915060608501356001600160401b03811115611a2957600080fd5b8501601f81018713611a3a57600080fd5b611a49878235602084016118c6565b91505092959194509250565b6020808252825182820181905260009190848201906040850190845b81811015611a8d57835183529284019291840191600101611a71565b50909695505050505050565b60008060408385031215611aac57600080fd5b611ab58361182e565b9150611ac36020840161182e565b90509250929050565b600181811c90821680611ae057607f821691505b602082108103611b0057634e487b7160e01b600052602260045260246000fd5b50919050565b634e487b7160e01b600052601160045260246000fd5b600060018201611b2e57611b2e611b06565b5060010190565b6020808252602d908201527f4552433732313a2063616c6c6572206973206e6f7420746f6b656e206f776e6560408201526c1c881bdc88185c1c1c9bdd9959609a1b606082015260800190565b634e487b7160e01b600052603260045260246000fd5b601f82111561065957600081815260208120601f850160051c81016020861015611bbf5750805b601f850160051c820191505b81811015611bde57828155600101611bcb565b505050505050565b81516001600160401b03811115611bff57611bff6118b0565b611c1381611c0d8454611acc565b84611b98565b602080601f831160018114611c485760008415611c305750858301515b600019600386901b1c1916600185901b178555611bde565b600085815260208120601f198616915b82811015611c7757888601518255948401946001909101908401611c58565b5085821015611c955787850151600019600388901b60f8161c191681555b5050505050600190811b01905550565b602080825260189082015277115490cdcc8c4e881a5b9d985b1a59081d1bdad95b88125160421b604082015260600190565b60008351611ce98184602088016117b2565b835190830190611cfd8183602088016117b2565b01949350505050565b60208082526025908201527f4552433732313a207472616e736665722066726f6d20696e636f72726563742060408201526437bbb732b960d91b606082015260800190565b60208082526032908201527f4552433732313a207472616e7366657220746f206e6f6e20455243373231526560408201527131b2b4bb32b91034b6b83632b6b2b73a32b960711b606082015260800190565b6001600160a01b0385811682528416602082015260408101839052608060608201819052600090611dd0908301846117d6565b9695505050505050565b600060208284031215611dec57600080fd5b8151610a688161177f565b6020808252601c908201527f4552433732313a20746f6b656e20616c7265616479206d696e74656400000000604082015260600190565b8181038181111561048557610485611b06565b634e487b7160e01b600052603160045260246000fdfea2646970667358221220f8a1eb5c10342fbcdae455b9c38d22fcc9c80ab3e5cae096211df6ee1410cb2764736f6c63430008140033",
  "linkReferences": {},
  "deployedLinkReferences": {}
}