{
  "_format": "hh-sol-artifact-1",
  "contractName": "UniProxy",
  "sourceName": "contracts/UniProxy.sol",
  "abi": [
    {
      "inputs": [
        {
          "internalType": "address",
          "name": "_wormholeCore",
          "type": "address"
        },
        {
          "internalType": "uint8",
          "name": "wormholeFinality_",
          "type": "uint8"
        }
      ],
      "stateMutability": "nonpayable",
      "type": "constructor"
    },
    {
      "anonymous": false,
      "inputs": [
        {
          "indexed": true,
          "internalType": "uint16",
          "name": "sourceChain",
          "type": "uint16"
        },
        {
          "indexed": true,
          "internalType": "bytes32",
          "name": "sourceAddress",
          "type": "bytes32"
        },
        {
          "indexed": false,
          "internalType": "address",
          "name": "proxy",
          "type": "address"
        }
      ],
      "name": "ProxyCreated",
      "type": "event"
    },
    {
      "inputs": [
        {
          "internalType": "uint16",
          "name": "",
          "type": "uint16"
        },
        {
          "internalType": "bytes32",
          "name": "",
          "type": "bytes32"
        }
      ],
      "name": "proxys",
      "outputs": [
        {
          "internalType": "address",
          "name": "",
          "type": "address"
        }
      ],
      "stateMutability": "view",
      "type": "function"
    },
    {
      "inputs": [
        {
          "internalType": "bytes",
          "name": "encodedMessage",
          "type": "bytes"
        }
      ],
      "name": "receiveMessage",
      "outputs": [],
      "stateMutability": "nonpayable",
      "type": "function"
    },
    {
      "inputs": [
        {
          "internalType": "bytes",
          "name": "payload",
          "type": "bytes"
        },
        {
          "internalType": "bytes[]",
          "name": "additionalVaas",
          "type": "bytes[]"
        },
        {
          "internalType": "bytes32",
          "name": "sourceAddress",
          "type": "bytes32"
        },
        {
          "internalType": "uint16",
          "name": "sourceChain",
          "type": "uint16"
        },
        {
          "internalType": "bytes32",
          "name": "deliveryHash",
          "type": "bytes32"
        }
      ],
      "name": "receiveWormholeMessages",
      "outputs": [],
      "stateMutability": "payable",
      "type": "function"
    },
    {
      "inputs": [
        {
          "internalType": "uint16",
          "name": "",
          "type": "uint16"
        }
      ],
      "name": "registeredSenders",
      "outputs": [
        {
          "internalType": "bytes32",
          "name": "",
          "type": "bytes32"
        }
      ],
      "stateMutability": "view",
      "type": "function"
    },
    {
      "inputs": [],
      "name": "registrationOwner",
      "outputs": [
        {
          "internalType": "address",
          "name": "",
          "type": "address"
        }
      ],
      "stateMutability": "view",
      "type": "function"
    },
    {
      "inputs": [
        {
          "internalType": "bytes",
          "name": "helloWorldMessage",
          "type": "bytes"
        }
      ],
      "name": "sendMessage",
      "outputs": [
        {
          "internalType": "uint64",
          "name": "messageSequence",
          "type": "uint64"
        }
      ],
      "stateMutability": "payable",
      "type": "function"
    },
    {
      "inputs": [
        {
          "internalType": "uint16",
          "name": "sourceChain",
          "type": "uint16"
        },
        {
          "internalType": "bytes32",
          "name": "sourceAddress",
          "type": "bytes32"
        }
      ],
      "name": "setRegisteredSender",
      "outputs": [],
      "stateMutability": "nonpayable",
      "type": "function"
    },
    {
      "inputs": [],
      "name": "wormholeCore",
      "outputs": [
        {
          "internalType": "address",
          "name": "",
          "type": "address"
        }
      ],
      "stateMutability": "view",
      "type": "function"
    },
    {
      "inputs": [],
      "name": "wormholeFinality",
      "outputs": [
        {
          "internalType": "uint8",
          "name": "",
          "type": "uint8"
        }
      ],
      "stateMutability": "view",
      "type": "function"
    }
  ],
  "bytecode": "0x608060405234801561001057600080fd5b5060405161151f38038061151f83398101604081905261002f91610080565b600080546001600160a01b0319166001600160a01b039390931692909217909155600180546001600160a81b0319163360ff60a01b191617600160a01b60ff909316929092029190911790556100cc565b6000806040838503121561009357600080fd5b82516001600160a01b03811681146100aa57600080fd5b602084015190925060ff811681146100c157600080fd5b809150509250929050565b611444806100db6000396000f3fe6080604052600436106100765760003560e01c80630520557b1461007b578063529dca32146100b357806379f0371d146100c85780637cee647b1461010357806382646a5814610130578063861b0f191461015b5780639f8a381d1461017b578063dd12d68b146101bc578063f953cec7146101dc575b600080fd5b34801561008757600080fd5b5060015461009c90600160a01b900460ff1681565b60405160ff90911681526020015b60405180910390f35b6100c66100c1366004610903565b6101fc565b005b3480156100d457600080fd5b506100f56100e33660046109f8565b60036020526000908152604090205481565b6040519081526020016100aa565b34801561010f57600080fd5b50600154610123906001600160a01b031681565b6040516100aa9190610a1c565b61014361013e366004610a30565b610268565b6040516001600160401b0390911681526020016100aa565b34801561016757600080fd5b50600054610123906001600160a01b031681565b34801561018757600080fd5b50610123610196366004610a64565b60026020908152600092835260408084209091529082529020546001600160a01b031681565b3480156101c857600080fd5b506100c66101d7366004610a64565b6103b6565b3480156101e857600080fd5b506100c66101f7366004610a30565b61041f565b6000546001600160a01b031633146102545760405162461bcd60e51b8152602060048201526016602482015275139bdd081ddbdc9b5a1bdb194818dbdc994818d85b1b60521b60448201526064015b60405180910390fd5b6102618585858585610510565b5050505050565b60008060008054906101000a90046001600160a01b031690506000816001600160a01b0316631a90a2196040518163ffffffff1660e01b8152600401602060405180830381865afa1580156102c1573d6000803e3d6000fd5b505050506040513d601f19601f820116820180604052508101906102e59190610a90565b905080341461032b5760405162461bcd60e51b8152602060048201526012602482015271696e73756666696369656e742076616c756560701b604482015260640161024b565b6001546040516358cd21bf60e11b81526001600160a01b0384169163b19a437e91849161036b916000918a91600160a01b90910460ff1690600401610af9565b60206040518083038185885af1158015610389573d6000803e3d6000fd5b50505050506040513d601f19601f820116820180604052508101906103ae9190610b42565b949350505050565b6001546001600160a01b031633146104085760405162461bcd60e51b81526020600482015260156024820152742737ba103932b3b4b9ba3930ba34b7b727bbb732b960591b604482015260640161024b565b61ffff909116600090815260036020526040902055565b6000805460405163607ec5ef60e11b8152829182916001600160a01b039091169063c0fd8bde90610454908790600401610b5d565b600060405180830381865afa158015610471573d6000803e3d6000fd5b505050506040513d6000823e601f3d908101601f191682016040526104999190810190610ca1565b9250925092508181906104bf5760405162461bcd60e51b815260040161024b9190610b5d565b5060e08301516040805160008082526020820190925261050a92916104f4565b60608152602001906001900390816104df5790505b5085608001518660600151876101400151610510565b50505050565b60008181526004602052604090205460ff161561056a5760405162461bcd60e51b81526020600482015260186024820152771b595cdcd859d948185b1c9958591e4818dbdb9cdd5b595960421b604482015260640161024b565b6000818152600460209081526040808320805460ff1916600117905561ffff8516835260039091529020548290849087908290036105bc57878060200190518101906105b69190610df8565b90925090505b61ffff831660009081526002602090815260408083208584529091529020546001600160a01b031680610736576000604051806020016105fb906107a2565b601f1982820381018352601f9091011660408190526001600160f01b031960f088901b16602082015260228101869052909150600090604201604051602081830303815290604052805190602001209050808251602084016000f56040516333f38d8760e21b815261ffff88166004820152602481018790529093506001600160a01b0384169063cfce361c90604401600060405180830381600087803b1580156106a557600080fd5b505af11580156106b9573d6000803e3d6000fd5b5050505061ffff861660008181526002602090815260408083208984529091529081902080546001600160a01b0319166001600160a01b038716179055518691907f7c040af6c949dc3bee3c17079a623d6a6692cc9ea55c7a7acd7b48888f9f060590610727908790610a1c565b60405180910390a35050610797565b604051632d1e1c5160e01b81526001600160a01b03821690632d1e1c51903490610764908690600401610b5d565b6000604051808303818588803b15801561077d57600080fd5b505af1158015610791573d6000803e3d6000fd5b50505050505b505050505050505050565b6105d080610e3f83390190565b634e487b7160e01b600052604160045260246000fd5b604051608081016001600160401b03811182821017156107e7576107e76107af565b60405290565b60405161016081016001600160401b03811182821017156107e7576107e76107af565b604051601f8201601f191681016001600160401b0381118282101715610838576108386107af565b604052919050565b60006001600160401b03821115610859576108596107af565b50601f01601f191660200190565b600082601f83011261087857600080fd5b813561088b61088682610840565b610810565b8181528460208386010111156108a057600080fd5b816020850160208301376000918101602001919091529392505050565b60006001600160401b038211156108d6576108d66107af565b5060051b60200190565b61ffff811681146108f057600080fd5b50565b80356108fe816108e0565b919050565b600080600080600060a0868803121561091b57600080fd5b85356001600160401b038082111561093257600080fd5b61093e89838a01610867565b965060209150818801358181111561095557600080fd5b8801601f81018a1361096657600080fd5b8035610974610886826108bd565b81815260059190911b8201840190848101908c83111561099357600080fd5b8584015b838110156109cb578035868111156109af5760008081fd5b6109bd8f8983890101610867565b845250918601918601610997565b509850505050604088013594506109e7915050606087016108f3565b949793965091946080013592915050565b600060208284031215610a0a57600080fd5b8135610a15816108e0565b9392505050565b6001600160a01b0391909116815260200190565b600060208284031215610a4257600080fd5b81356001600160401b03811115610a5857600080fd5b6103ae84828501610867565b60008060408385031215610a7757600080fd5b8235610a82816108e0565b946020939093013593505050565b600060208284031215610aa257600080fd5b5051919050565b60005b83811015610ac4578181015183820152602001610aac565b50506000910152565b60008151808452610ae5816020860160208601610aa9565b601f01601f19169290920160200192915050565b63ffffffff84168152606060208201526000610b186060830185610acd565b905060ff83166040830152949350505050565b80516001600160401b03811681146108fe57600080fd5b600060208284031215610b5457600080fd5b610a1582610b2b565b602081526000610a156020830184610acd565b805160ff811681146108fe57600080fd5b805163ffffffff811681146108fe57600080fd5b80516108fe816108e0565b600082601f830112610bb157600080fd5b8151610bbf61088682610840565b818152846020838601011115610bd457600080fd5b6103ae826020830160208701610aa9565b600082601f830112610bf657600080fd5b81516020610c06610886836108bd565b82815260079290921b84018101918181019086841115610c2557600080fd5b8286015b84811015610c865760808189031215610c425760008081fd5b610c4a6107c5565b8151815284820151858201526040610c63818401610b70565b908201526060610c74838201610b70565b90820152835291830191608001610c29565b509695505050505050565b805180151581146108fe57600080fd5b600080600060608486031215610cb657600080fd5b83516001600160401b0380821115610ccd57600080fd5b908501906101608288031215610ce257600080fd5b610cea6107ed565b610cf383610b70565b8152610d0160208401610b81565b6020820152610d1260408401610b81565b6040820152610d2360608401610b95565b606082015260808301516080820152610d3e60a08401610b2b565b60a0820152610d4f60c08401610b70565b60c082015260e083015182811115610d6657600080fd5b610d7289828601610ba0565b60e083015250610100610d86818501610b81565b908201526101208381015183811115610d9e57600080fd5b610daa8a828701610be5565b918301919091525061014083810151908201529450610dcb60208701610c91565b93506040860151915080821115610de157600080fd5b50610dee86828701610ba0565b9150509250925092565b60008060408385031215610e0b57600080fd5b8251915060208301516001600160401b03811115610e2857600080fd5b610e3485828601610ba0565b915050925092905056fe608060405234801561001057600080fd5b50600080546001600160a01b0319163317905561059e806100326000396000f3fe6080604052600436106100595760003560e01c80631c6ffa46146100655780632d1e1c511461009f578063b0fa8444146100b4578063be2d7236146100d8578063c45a015514610110578063cfce361c1461013057600080fd5b3661006057005b600080fd5b34801561007157600080fd5b5060005461008790600160a01b900461ffff1681565b60405161ffff90911681526020015b60405180910390f35b6100b26100ad36600461037e565b610150565b005b3480156100c057600080fd5b506100ca60015481565b604051908152602001610096565b3480156100e457600080fd5b506100f86100f33660046103fd565b610263565b6040516001600160a01b039091168152602001610096565b34801561011c57600080fd5b506000546100f8906001600160a01b031681565b34801561013c57600080fd5b506100b261014b366004610416565b6102c1565b6000546001600160a01b031633146101835760405162461bcd60e51b815260040161017a90610449565b60405180910390fd5b60008060008380602001905181019061019c919061049a565b92509250925060006101ad84610263565b905060006001600160a01b0382166101c58534610525565b846040516101d3919061054c565b60006040518083038185875af1925050503d8060008114610210576040519150601f19603f3d011682016040523d82523d6000602084013e610215565b606091505b505090508061025b5760405162461bcd60e51b8152602060048201526012602482015271115d9b541c9bde1e4e8810d85b1b11985a5b60721b604482015260640161017a565b505050505050565b60006001600160a01b03198216156102bd5760405162461bcd60e51b815260206004820152601f60248201527f46726f6d556e69416464726573733a204e6f742045564d206164647265737300604482015260640161017a565b5090565b6000546001600160a01b031633146102eb5760405162461bcd60e51b815260040161017a90610449565b6000805461ffff909316600160a01b0261ffff60a01b1990931692909217909155600155565b634e487b7160e01b600052604160045260246000fd5b604051601f8201601f191681016001600160401b038111828210171561034f5761034f610311565b604052919050565b60006001600160401b0382111561037057610370610311565b50601f01601f191660200190565b60006020828403121561039057600080fd5b81356001600160401b038111156103a657600080fd5b8201601f810184136103b757600080fd5b80356103ca6103c582610357565b610327565b8181528560208385010111156103df57600080fd5b81602084016020830137600091810160200191909152949350505050565b60006020828403121561040f57600080fd5b5035919050565b6000806040838503121561042957600080fd5b823561ffff8116811461043b57600080fd5b946020939093013593505050565b60208082526013908201527222bb36a83937bc3c9d102337b93134b23232b760691b604082015260600190565b60005b83811015610491578181015183820152602001610479565b50506000910152565b6000806000606084860312156104af57600080fd5b835192506020840151915060408401516001600160401b038111156104d357600080fd5b8401601f810186136104e457600080fd5b80516104f26103c582610357565b81815287602083850101111561050757600080fd5b610518826020830160208601610476565b8093505050509250925092565b8082018082111561054657634e487b7160e01b600052601160045260246000fd5b92915050565b6000825161055e818460208701610476565b919091019291505056fea26469706673582212207151be5cc0aaa92a03b421c2b5d320496f5d806281d85393e522442eabe4810c64736f6c63430008140033a2646970667358221220257aa66d9fa7f96619c3883baee41a51230ff621b1ac6474ba5bba210bf09ecd64736f6c63430008140033",
  "linkReferences": {},
  "deployedLinkReferences": {}
}