{
  "_format": "hh-sol-artifact-1",
  "contractName": "UniProxy",
  "sourceName": "contracts/UniProxy.sol",
  "abi": [
    {
      "inputs": [
        {
          "internalType": "address",
          "name": "_wormholeCore",
          "type": "address"
        },
        {
          "internalType": "uint8",
          "name": "wormholeFinality_",
          "type": "uint8"
        }
      ],
      "stateMutability": "nonpayable",
      "type": "constructor"
    },
    {
      "anonymous": false,
      "inputs": [
        {
          "indexed": true,
          "internalType": "uint16",
          "name": "sourceChain",
          "type": "uint16"
        },
        {
          "indexed": true,
          "internalType": "bytes32",
          "name": "sourceAddress",
          "type": "bytes32"
        },
        {
          "indexed": false,
          "internalType": "address",
          "name": "proxy",
          "type": "address"
        }
      ],
      "name": "ProxyCreated",
      "type": "event"
    },
    {
      "inputs": [
        {
          "internalType": "uint16",
          "name": "sourceChain",
          "type": "uint16"
        },
        {
          "internalType": "address",
          "name": "sourceAddress",
          "type": "address"
        }
      ],
      "name": "getReverseAddress",
      "outputs": [
        {
          "internalType": "bytes32",
          "name": "",
          "type": "bytes32"
        }
      ],
      "stateMutability": "view",
      "type": "function"
    },
    {
      "inputs": [
        {
          "internalType": "uint16",
          "name": "",
          "type": "uint16"
        },
        {
          "internalType": "bytes32",
          "name": "",
          "type": "bytes32"
        }
      ],
      "name": "proxys",
      "outputs": [
        {
          "internalType": "address",
          "name": "",
          "type": "address"
        }
      ],
      "stateMutability": "view",
      "type": "function"
    },
    {
      "inputs": [
        {
          "internalType": "bytes",
          "name": "encodedMessage",
          "type": "bytes"
        }
      ],
      "name": "receiveMessage",
      "outputs": [],
      "stateMutability": "nonpayable",
      "type": "function"
    },
    {
      "inputs": [
        {
          "internalType": "bytes",
          "name": "payload",
          "type": "bytes"
        },
        {
          "internalType": "bytes[]",
          "name": "additionalVaas",
          "type": "bytes[]"
        },
        {
          "internalType": "bytes32",
          "name": "sourceAddress",
          "type": "bytes32"
        },
        {
          "internalType": "uint16",
          "name": "sourceChain",
          "type": "uint16"
        },
        {
          "internalType": "bytes32",
          "name": "deliveryHash",
          "type": "bytes32"
        }
      ],
      "name": "receiveWormholeMessages",
      "outputs": [],
      "stateMutability": "payable",
      "type": "function"
    },
    {
      "inputs": [
        {
          "internalType": "uint16",
          "name": "",
          "type": "uint16"
        }
      ],
      "name": "registeredSenders",
      "outputs": [
        {
          "internalType": "bytes32",
          "name": "",
          "type": "bytes32"
        }
      ],
      "stateMutability": "view",
      "type": "function"
    },
    {
      "inputs": [],
      "name": "registrationOwner",
      "outputs": [
        {
          "internalType": "address",
          "name": "",
          "type": "address"
        }
      ],
      "stateMutability": "view",
      "type": "function"
    },
    {
      "inputs": [
        {
          "internalType": "uint16",
          "name": "",
          "type": "uint16"
        },
        {
          "internalType": "address",
          "name": "",
          "type": "address"
        }
      ],
      "name": "reverseProxys",
      "outputs": [
        {
          "internalType": "bytes32",
          "name": "",
          "type": "bytes32"
        }
      ],
      "stateMutability": "view",
      "type": "function"
    },
    {
      "inputs": [
        {
          "internalType": "bytes",
          "name": "helloWorldMessage",
          "type": "bytes"
        }
      ],
      "name": "sendMessage",
      "outputs": [
        {
          "internalType": "uint64",
          "name": "messageSequence",
          "type": "uint64"
        }
      ],
      "stateMutability": "payable",
      "type": "function"
    },
    {
      "inputs": [
        {
          "internalType": "uint16",
          "name": "sourceChain",
          "type": "uint16"
        },
        {
          "internalType": "bytes32",
          "name": "sourceAddress",
          "type": "bytes32"
        }
      ],
      "name": "setRegisteredSender",
      "outputs": [],
      "stateMutability": "nonpayable",
      "type": "function"
    },
    {
      "inputs": [],
      "name": "wormholeCore",
      "outputs": [
        {
          "internalType": "address",
          "name": "",
          "type": "address"
        }
      ],
      "stateMutability": "view",
      "type": "function"
    },
    {
      "inputs": [],
      "name": "wormholeFinality",
      "outputs": [
        {
          "internalType": "uint8",
          "name": "",
          "type": "uint8"
        }
      ],
      "stateMutability": "view",
      "type": "function"
    }
  ],
  "bytecode": "0x608060405234801561001057600080fd5b5060405161173338038061173383398101604081905261002f91610080565b600080546001600160a01b0319166001600160a01b039390931692909217909155600180546001600160a81b0319163360ff60a01b191617600160a01b60ff909316929092029190911790556100cc565b6000806040838503121561009357600080fd5b82516001600160a01b03811681146100aa57600080fd5b602084015190925060ff811681146100c157600080fd5b809150509250929050565b611658806100db6000396000f3fe60806040526004361061008c5760003560e01c80630520557b1461009157806330e5b1e9146100c9578063529dca321461012057806379f0371d146101355780637cee647b1461016257806382646a581461018f578063861b0f19146101ba5780639f8a381d146101da578063dd12d68b1461021b578063f45db7dd1461023b578063f953cec714610273575b600080fd5b34801561009d57600080fd5b506001546100b290600160a01b900460ff1681565b60405160ff90911681526020015b60405180910390f35b3480156100d557600080fd5b506101126100e4366004610885565b61ffff821660009081526003602090815260408083206001600160a01b038516845290915290205492915050565b6040519081526020016100c0565b61013361012e3660046109fb565b610293565b005b34801561014157600080fd5b50610112610150366004610af0565b60046020526000908152604090205481565b34801561016e57600080fd5b50600154610182906001600160a01b031681565b6040516100c09190610b14565b6101a261019d366004610b28565b6102ff565b6040516001600160401b0390911681526020016100c0565b3480156101c657600080fd5b50600054610182906001600160a01b031681565b3480156101e657600080fd5b506101826101f5366004610b5c565b60026020908152600092835260408084209091529082529020546001600160a01b031681565b34801561022757600080fd5b50610133610236366004610b5c565b61044d565b34801561024757600080fd5b50610112610256366004610885565b600360209081526000928352604080842090915290825290205481565b34801561027f57600080fd5b5061013361028e366004610b28565b6104b6565b6000546001600160a01b031633146102eb5760405162461bcd60e51b8152602060048201526016602482015275139bdd081ddbdc9b5a1bdb194818dbdc994818d85b1b60521b60448201526064015b60405180910390fd5b6102f885858585856105a7565b5050505050565b60008060008054906101000a90046001600160a01b031690506000816001600160a01b0316631a90a2196040518163ffffffff1660e01b8152600401602060405180830381865afa158015610358573d6000803e3d6000fd5b505050506040513d601f19601f8201168201806040525081019061037c9190610b88565b90508034146103c25760405162461bcd60e51b8152602060048201526012602482015271696e73756666696369656e742076616c756560701b60448201526064016102e2565b6001546040516358cd21bf60e11b81526001600160a01b0384169163b19a437e918491610402916000918a91600160a01b90910460ff1690600401610bf1565b60206040518083038185885af1158015610420573d6000803e3d6000fd5b50505050506040513d601f19601f820116820180604052508101906104459190610c3a565b949350505050565b6001546001600160a01b0316331461049f5760405162461bcd60e51b81526020600482015260156024820152742737ba103932b3b4b9ba3930ba34b7b727bbb732b960591b60448201526064016102e2565b61ffff909116600090815260046020526040902055565b6000805460405163607ec5ef60e11b8152829182916001600160a01b039091169063c0fd8bde906104eb908790600401610c55565b600060405180830381865afa158015610508573d6000803e3d6000fd5b505050506040513d6000823e601f3d908101601f191682016040526105309190810190610d99565b9250925092508181906105565760405162461bcd60e51b81526004016102e29190610c55565b5060e0830151604080516000808252602082019092526105a1929161058b565b60608152602001906001900390816105765790505b50856080015186606001518761014001516105a7565b50505050565b60008181526005602052604090205460ff16156106015760405162461bcd60e51b81526020600482015260186024820152771b595cdcd859d948185b1c9958591e4818dbdb9cdd5b595960421b60448201526064016102e2565b6000818152600560209081526040808320805460ff1916600117905561ffff85168352600490915281205483918591889190839003610656578880602001905181019061064e9190610ef0565b909450925090505b61ffff841660009081526002602090815260408083208684529091529020546001600160a01b0316806107e85760006040518060200161069590610855565b601f1982820381018352601f9091011660408190526001600160f01b031960f089901b16602082015260228101879052909150600090604201604051602081830303815290604052805190602001209050808251602084016000f56040516333f38d8760e21b815261ffff89166004820152602481018890529093506001600160a01b0384169063cfce361c90604401600060405180830381600087803b15801561073f57600080fd5b505af1158015610753573d6000803e3d6000fd5b50505061ffff881660008181526002602090815260408083208b8452825280832080546001600160a01b038a166001600160a01b031990911681179091558484526003835281842090845290915290819020899055518892507f7c040af6c949dc3bee3c17079a623d6a6692cc9ea55c7a7acd7b48888f9f0605906107d9908790610b14565b60405180910390a35050610849565b604051632d1e1c5160e01b81526001600160a01b03821690632d1e1c51903490610816908790600401610c55565b6000604051808303818588803b15801561082f57600080fd5b505af1158015610843573d6000803e3d6000fd5b50505050505b50505050505050505050565b6106d680610f4d83390190565b61ffff8116811461087257600080fd5b50565b803561088081610862565b919050565b6000806040838503121561089857600080fd5b82356108a381610862565b915060208301356001600160a01b03811681146108bf57600080fd5b809150509250929050565b634e487b7160e01b600052604160045260246000fd5b604051608081016001600160401b0381118282101715610902576109026108ca565b60405290565b60405161016081016001600160401b0381118282101715610902576109026108ca565b604051601f8201601f191681016001600160401b0381118282101715610953576109536108ca565b604052919050565b60006001600160401b03821115610974576109746108ca565b50601f01601f191660200190565b600082601f83011261099357600080fd5b81356109a66109a18261095b565b61092b565b8181528460208386010111156109bb57600080fd5b816020850160208301376000918101602001919091529392505050565b60006001600160401b038211156109f1576109f16108ca565b5060051b60200190565b600080600080600060a08688031215610a1357600080fd5b85356001600160401b0380821115610a2a57600080fd5b610a3689838a01610982565b9650602091508188013581811115610a4d57600080fd5b8801601f81018a13610a5e57600080fd5b8035610a6c6109a1826109d8565b81815260059190911b8201840190848101908c831115610a8b57600080fd5b8584015b83811015610ac357803586811115610aa75760008081fd5b610ab58f8983890101610982565b845250918601918601610a8f565b50985050505060408801359450610adf91505060608701610875565b949793965091946080013592915050565b600060208284031215610b0257600080fd5b8135610b0d81610862565b9392505050565b6001600160a01b0391909116815260200190565b600060208284031215610b3a57600080fd5b81356001600160401b03811115610b5057600080fd5b61044584828501610982565b60008060408385031215610b6f57600080fd5b8235610b7a81610862565b946020939093013593505050565b600060208284031215610b9a57600080fd5b5051919050565b60005b83811015610bbc578181015183820152602001610ba4565b50506000910152565b60008151808452610bdd816020860160208601610ba1565b601f01601f19169290920160200192915050565b63ffffffff84168152606060208201526000610c106060830185610bc5565b905060ff83166040830152949350505050565b80516001600160401b038116811461088057600080fd5b600060208284031215610c4c57600080fd5b610b0d82610c23565b602081526000610b0d6020830184610bc5565b805160ff8116811461088057600080fd5b805163ffffffff8116811461088057600080fd5b805161088081610862565b600082601f830112610ca957600080fd5b8151610cb76109a18261095b565b818152846020838601011115610ccc57600080fd5b610445826020830160208701610ba1565b600082601f830112610cee57600080fd5b81516020610cfe6109a1836109d8565b82815260079290921b84018101918181019086841115610d1d57600080fd5b8286015b84811015610d7e5760808189031215610d3a5760008081fd5b610d426108e0565b8151815284820151858201526040610d5b818401610c68565b908201526060610d6c838201610c68565b90820152835291830191608001610d21565b509695505050505050565b8051801515811461088057600080fd5b600080600060608486031215610dae57600080fd5b83516001600160401b0380821115610dc557600080fd5b908501906101608288031215610dda57600080fd5b610de2610908565b610deb83610c68565b8152610df960208401610c79565b6020820152610e0a60408401610c79565b6040820152610e1b60608401610c8d565b606082015260808301516080820152610e3660a08401610c23565b60a0820152610e4760c08401610c68565b60c082015260e083015182811115610e5e57600080fd5b610e6a89828601610c98565b60e083015250610100610e7e818501610c79565b908201526101208381015183811115610e9657600080fd5b610ea28a828701610cdd565b918301919091525061014083810151908201529450610ec360208701610d89565b93506040860151915080821115610ed957600080fd5b50610ee686828701610c98565b9150509250925092565b600080600060608486031215610f0557600080fd5b83516001600160c01b031981168114610f1d57600080fd5b6020850151604086015191945092506001600160401b03811115610f4057600080fd5b610ee686828701610c9856fe608060405234801561001057600080fd5b50600080546001600160a01b031916331790556106a4806100326000396000f3fe6080604052600436106100645760003560e01c8063150b7a02146100705780631c6ffa46146100ba5780632d1e1c51146100ef578063b0fa844414610104578063be2d723614610128578063c45a015514610160578063cfce361c1461018057600080fd5b3661006b57005b600080fd5b34801561007c57600080fd5b5061009c61008b36600461037d565b630a85bd0160e11b95945050505050565b6040516001600160e01b031990911681526020015b60405180910390f35b3480156100c657600080fd5b506000546100dc90600160a01b900461ffff1681565b60405161ffff90911681526020016100b1565b6101026100fd366004610484565b6101a0565b005b34801561011057600080fd5b5061011a60015481565b6040519081526020016100b1565b34801561013457600080fd5b50610148610143366004610503565b6102b3565b6040516001600160a01b0390911681526020016100b1565b34801561016c57600080fd5b50600054610148906001600160a01b031681565b34801561018c57600080fd5b5061010261019b36600461051c565b610311565b6000546001600160a01b031633146101d35760405162461bcd60e51b81526004016101ca9061054f565b60405180910390fd5b6000806000838060200190518101906101ec91906105a0565b92509250925060006101fd846102b3565b905060006001600160a01b038216610215853461062b565b846040516102239190610652565b60006040518083038185875af1925050503d8060008114610260576040519150601f19603f3d011682016040523d82523d6000602084013e610265565b606091505b50509050806102ab5760405162461bcd60e51b8152602060048201526012602482015271115d9b541c9bde1e4e8810d85b1b11985a5b60721b60448201526064016101ca565b505050505050565b60006001600160a01b031982161561030d5760405162461bcd60e51b815260206004820152601f60248201527f46726f6d556e69416464726573733a204e6f742045564d20616464726573730060448201526064016101ca565b5090565b6000546001600160a01b0316331461033b5760405162461bcd60e51b81526004016101ca9061054f565b6000805461ffff909316600160a01b0261ffff60a01b1990931692909217909155600155565b80356001600160a01b038116811461037857600080fd5b919050565b60008060008060006080868803121561039557600080fd5b61039e86610361565b94506103ac60208701610361565b93506040860135925060608601356001600160401b03808211156103cf57600080fd5b818801915088601f8301126103e357600080fd5b8135818111156103f257600080fd5b89602082850101111561040457600080fd5b9699959850939650602001949392505050565b634e487b7160e01b600052604160045260246000fd5b604051601f8201601f191681016001600160401b038111828210171561045557610455610417565b604052919050565b60006001600160401b0382111561047657610476610417565b50601f01601f191660200190565b60006020828403121561049657600080fd5b81356001600160401b038111156104ac57600080fd5b8201601f810184136104bd57600080fd5b80356104d06104cb8261045d565b61042d565b8181528560208385010111156104e557600080fd5b81602084016020830137600091810160200191909152949350505050565b60006020828403121561051557600080fd5b5035919050565b6000806040838503121561052f57600080fd5b823561ffff8116811461054157600080fd5b946020939093013593505050565b60208082526013908201527222bb36a83937bc3c9d102337b93134b23232b760691b604082015260600190565b60005b8381101561059757818101518382015260200161057f565b50506000910152565b6000806000606084860312156105b557600080fd5b835192506020840151915060408401516001600160401b038111156105d957600080fd5b8401601f810186136105ea57600080fd5b80516105f86104cb8261045d565b81815287602083850101111561060d57600080fd5b61061e82602083016020860161057c565b8093505050509250925092565b8082018082111561064c57634e487b7160e01b600052601160045260246000fd5b92915050565b6000825161066481846020870161057c565b919091019291505056fea264697066735822122021b7703c945c4d02b00124e0431335415024e9cb7252dcf702606e1c76c74db864736f6c63430008140033a2646970667358221220415abe4dfa863faf7e5e73b510166326bfbb94b68d9b135d30e1c9755845856b64736f6c63430008140033",
  "linkReferences": {},
  "deployedLinkReferences": {}
}